{
  "contractName": "Ballot",
  "abi": [
    {
      "inputs": [],
      "stateMutability": "nonpayable",
      "type": "constructor"
    },
    {
      "anonymous": false,
      "inputs": [
        {
          "indexed": false,
          "internalType": "uint256",
          "name": "candidateID",
          "type": "uint256"
        }
      ],
      "name": "AddedCandidate",
      "type": "event"
    },
    {
      "anonymous": false,
      "inputs": [
        {
          "indexed": false,
          "internalType": "uint256",
          "name": "id",
          "type": "uint256"
        },
        {
          "indexed": false,
          "internalType": "string",
          "name": "name",
          "type": "string"
        }
      ],
      "name": "AddedCat",
      "type": "event"
    },
    {
      "anonymous": false,
      "inputs": [
        {
          "indexed": false,
          "internalType": "string",
          "name": "rid",
          "type": "string"
        },
        {
          "indexed": false,
          "internalType": "uint256",
          "name": "id",
          "type": "uint256"
        }
      ],
      "name": "AddedEntry",
      "type": "event"
    },
    {
      "anonymous": false,
      "inputs": [
        {
          "indexed": false,
          "internalType": "string",
          "name": "error",
          "type": "string"
        }
      ],
      "name": "Error",
      "type": "event"
    },
    {
      "anonymous": false,
      "inputs": [
        {
          "indexed": false,
          "internalType": "string",
          "name": "error",
          "type": "string"
        }
      ],
      "name": "Error1",
      "type": "event"
    },
    {
      "anonymous": false,
      "inputs": [
        {
          "indexed": false,
          "internalType": "string",
          "name": "error",
          "type": "string"
        }
      ],
      "name": "Error2",
      "type": "event"
    },
    {
      "anonymous": false,
      "inputs": [
        {
          "indexed": false,
          "internalType": "string",
          "name": "error",
          "type": "string"
        }
      ],
      "name": "Error3",
      "type": "event"
    },
    {
      "anonymous": false,
      "inputs": [
        {
          "indexed": false,
          "internalType": "bool",
          "name": "cState",
          "type": "bool"
        }
      ],
      "name": "isCreated",
      "type": "event"
    },
    {
      "anonymous": false,
      "inputs": [
        {
          "indexed": false,
          "internalType": "bool",
          "name": "cState",
          "type": "bool"
        }
      ],
      "name": "isVoting",
      "type": "event"
    },
    {
      "inputs": [],
      "name": "state",
      "outputs": [
        {
          "internalType": "enum Ballot.State",
          "name": "",
          "type": "uint8"
        }
      ],
      "stateMutability": "view",
      "type": "function",
      "constant": true
    },
    {
      "inputs": [
        {
          "internalType": "string",
          "name": "rid",
          "type": "string"
        },
        {
          "internalType": "uint256",
          "name": "id",
          "type": "uint256"
        }
      ],
      "name": "entry",
      "outputs": [],
      "stateMutability": "nonpayable",
      "type": "function"
    },
    {
      "inputs": [],
      "name": "startVoting",
      "outputs": [],
      "stateMutability": "nonpayable",
      "type": "function"
    },
    {
      "inputs": [],
      "name": "stopVoting",
      "outputs": [],
      "stateMutability": "nonpayable",
      "type": "function"
    },
    {
      "inputs": [],
      "name": "end",
      "outputs": [],
      "stateMutability": "nonpayable",
      "type": "function"
    },
    {
      "inputs": [
        {
          "internalType": "string",
          "name": "name",
          "type": "string"
        },
        {
          "internalType": "string",
          "name": "party",
          "type": "string"
        }
      ],
      "name": "addCandidate",
      "outputs": [],
      "stateMutability": "nonpayable",
      "type": "function"
    },
    {
      "inputs": [
        {
          "internalType": "string",
          "name": "name",
          "type": "string"
        }
      ],
      "name": "addCats",
      "outputs": [],
      "stateMutability": "nonpayable",
      "type": "function"
    },
    {
      "inputs": [
        {
          "internalType": "uint256",
          "name": "candidateID",
          "type": "uint256"
        },
        {
          "internalType": "string",
          "name": "rid",
          "type": "string"
        }
      ],
      "name": "vote",
      "outputs": [],
      "stateMutability": "nonpayable",
      "type": "function"
    },
    {
      "inputs": [
        {
          "internalType": "uint256",
          "name": "candidateID",
          "type": "uint256"
        }
      ],
      "name": "totalVotes",
      "outputs": [
        {
          "internalType": "uint256",
          "name": "",
          "type": "uint256"
        }
      ],
      "stateMutability": "view",
      "type": "function",
      "constant": true
    },
    {
      "inputs": [
        {
          "internalType": "uint256",
          "name": "candidateID",
          "type": "uint256"
        }
      ],
      "name": "voteswithId",
      "outputs": [
        {
          "internalType": "string",
          "name": "",
          "type": "string"
        },
        {
          "internalType": "uint256",
          "name": "",
          "type": "uint256"
        }
      ],
      "stateMutability": "view",
      "type": "function",
      "constant": true
    },
    {
      "inputs": [
        {
          "internalType": "uint256",
          "name": "candidateid",
          "type": "uint256"
        },
        {
          "internalType": "uint256",
          "name": "inputcat",
          "type": "uint256"
        }
      ],
      "name": "advancedVotes",
      "outputs": [
        {
          "internalType": "string",
          "name": "",
          "type": "string"
        },
        {
          "internalType": "uint256",
          "name": "",
          "type": "uint256"
        }
      ],
      "stateMutability": "view",
      "type": "function",
      "constant": true
    },
    {
      "inputs": [
        {
          "internalType": "uint256",
          "name": "candidateID",
          "type": "uint256"
        }
      ],
      "name": "getCandidateData",
      "outputs": [
        {
          "internalType": "uint256",
          "name": "",
          "type": "uint256"
        },
        {
          "internalType": "string",
          "name": "",
          "type": "string"
        },
        {
          "internalType": "string",
          "name": "",
          "type": "string"
        },
        {
          "internalType": "uint256",
          "name": "",
          "type": "uint256"
        }
      ],
      "stateMutability": "view",
      "type": "function",
      "constant": true
    },
    {
      "inputs": [
        {
          "internalType": "uint256",
          "name": "id",
          "type": "uint256"
        }
      ],
      "name": "votesbycat",
      "outputs": [
        {
          "internalType": "string",
          "name": "",
          "type": "string"
        },
        {
          "internalType": "uint256",
          "name": "",
          "type": "uint256"
        }
      ],
      "stateMutability": "view",
      "type": "function",
      "constant": true
    },
    {
      "inputs": [
        {
          "internalType": "uint256",
          "name": "id",
          "type": "uint256"
        }
      ],
      "name": "returnCats",
      "outputs": [
        {
          "internalType": "uint256",
          "name": "",
          "type": "uint256"
        },
        {
          "internalType": "string",
          "name": "",
          "type": "string"
        },
        {
          "internalType": "uint256",
          "name": "",
          "type": "uint256"
        }
      ],
      "stateMutability": "view",
      "type": "function",
      "constant": true
    },
    {
      "inputs": [],
      "name": "returnCatCount",
      "outputs": [
        {
          "internalType": "uint256",
          "name": "",
          "type": "uint256"
        }
      ],
      "stateMutability": "view",
      "type": "function",
      "constant": true
    },
    {
      "inputs": [],
      "name": "getNumOfCandidates",
      "outputs": [
        {
          "internalType": "uint256",
          "name": "",
          "type": "uint256"
        }
      ],
      "stateMutability": "view",
      "type": "function",
      "constant": true
    },
    {
      "inputs": [],
      "name": "getNumOfVoters",
      "outputs": [
        {
          "internalType": "uint256",
          "name": "",
          "type": "uint256"
        }
      ],
      "stateMutability": "view",
      "type": "function",
      "constant": true
    },
    {
      "inputs": [
        {
          "internalType": "uint256",
          "name": "candidateID",
          "type": "uint256"
        }
      ],
      "name": "getCandidate",
      "outputs": [
        {
          "internalType": "uint256",
          "name": "",
          "type": "uint256"
        },
        {
          "internalType": "string",
          "name": "",
          "type": "string"
        },
        {
          "internalType": "string",
          "name": "",
          "type": "string"
        }
      ],
      "stateMutability": "view",
      "type": "function",
      "constant": true
    },
    {
      "inputs": [
        {
          "internalType": "string",
          "name": "rid",
          "type": "string"
        }
      ],
      "name": "returnMappingValue",
      "outputs": [
        {
          "internalType": "bool",
          "name": "",
          "type": "bool"
        }
      ],
      "stateMutability": "view",
      "type": "function",
      "constant": true
    },
    {
      "inputs": [],
      "name": "currentState",
      "outputs": [
        {
          "internalType": "enum Ballot.State",
          "name": "",
          "type": "uint8"
        }
      ],
      "stateMutability": "view",
      "type": "function",
      "constant": true
    }
  ],
  "bytecode": "0x60806040523480156200001157600080fd5b50336000806101000a81548173ffffffffffffffffffffffffffffffffffffffff021916908373ffffffffffffffffffffffffffffffffffffffff1602179055506000600860006101000a81548160ff021916908360028111156200007b576200007a620000fa565b5b02179055507f01890fbcdf362abaa7e4d5d83eb9036ad0f3326ab2dcbcf183a2147aaf50e9bb6001604051620000b2919062000146565b60405180910390a17f8230739840694e52482d047a2e5d5a05c95a1759e32dcb1ae6fd1115ed2cc5086000604051620000ec919062000146565b60405180910390a162000163565b7f4e487b7100000000000000000000000000000000000000000000000000000000600052602160045260246000fd5b60008115159050919050565b620001408162000129565b82525050565b60006020820190506200015d600083018462000135565b92915050565b6121d480620001736000396000f3fe608060405234801561001057600080fd5b506004361061012c5760003560e01c80638b808a59116100ad578063e8685ba111610071578063e8685ba114610360578063efbe1c1c1461037e578063f2437ef414610388578063fab2f86b146103a4578063fc51b6f8146103ae5761012c565b80638b808a591461027d578063bca50c4d146102ae578063c19d93fb146102e1578063c765fd60146102ff578063dde1ea011461032f5761012c565b806335b8e820116100f457806335b8e820146101c157806365fc783c146101f357806374c3d3f6146102115780637f0316b41461022f57806382d29a971461024b5761012c565b80630c3f6acf1461013157806319e6e1581461014f5780631ec6b60a1461017f578063241084751461018957806326541b56146101a5575b600080fd5b6101396103df565b604051610146919061172f565b60405180910390f35b61016960048036038101906101649190611794565b6103f6565b60405161017691906117d0565b60405180910390f35b610187610453565b005b6101a3600480360381019061019e9190611931565b610552565b005b6101bf60048036038101906101ba919061198d565b61075f565b005b6101db60048036038101906101d69190611794565b610947565b6040516101ea93929190611a8d565b60405180910390f35b6101fb610a9e565b60405161020891906117d0565b60405180910390f35b610219610aa8565b60405161022691906117d0565b60405180910390f35b61024960048036038101906102449190611ad2565b610ab2565b005b61026560048036038101906102609190611794565b610c2b565b60405161027493929190611b1b565b60405180910390f35b61029760048036038101906102929190611b59565b610cf8565b6040516102a5929190611b99565b60405180910390f35b6102c860048036038101906102c39190611794565b610e22565b6040516102d89493929190611bc9565b60405180910390f35b6102e9610fd6565b6040516102f6919061172f565b60405180910390f35b61031960048036038101906103149190611ad2565b610fe9565b6040516103269190611c37565b60405180910390f35b61034960048036038101906103449190611794565b611021565b604051610357929190611b99565b60405180910390f35b610368611127565b60405161037591906117d0565b60405180910390f35b610386611131565b005b6103a2600480360381019061039d9190611c52565b6112a3565b005b6103ac611450565b005b6103c860048036038101906103c39190611794565b61154f565b6040516103d6929190611b99565b60405180910390f35b6000600860009054906101000a900460ff16905090565b6000806000905060005b600254811015610449578360056000838152602001908152602001600020600001540361043657818061043290611cdd565b9250505b808061044190611cdd565b915050610400565b5080915050919050565b60008054906101000a900473ffffffffffffffffffffffffffffffffffffffff1673ffffffffffffffffffffffffffffffffffffffff163373ffffffffffffffffffffffffffffffffffffffff16146104ab57600080fd5b60008060028111156104c0576104bf6116b8565b5b600860009054906101000a900460ff1660028111156104e2576104e16116b8565b5b146104ec57600080fd5b6001600860006101000a81548160ff02191690836002811115610512576105116116b8565b5b02179055507f8230739840694e52482d047a2e5d5a05c95a1759e32dcb1ae6fd1115ed2cc50860016040516105479190611c37565b60405180910390a150565b60016002811115610566576105656116b8565b5b600860009054906101000a900460ff166002811115610588576105876116b8565b5b0361072557600115156004600084815260200190815260200160002060020160009054906101000a900460ff1615151480156105f65750600015156006826040516105d39190611d61565b908152602001604051809103902060000160009054906101000a900460ff161515145b156106ea5760006002600081548092919061061090611cdd565b91905055905060006006836040516106289190611d61565b908152602001604051809103902060010154905060405180604001604052808581526020018281525060056000848152602001908152602001600020600082015181600001556020820151816001015590505060016007600083815260200190815260200160002060010160008282546106a29190611d78565b9250508190555060016006846040516106bb9190611d61565b908152602001604051809103902060000160006101000a81548160ff0219169083151502179055505050610720565b7fdbc0142a933f84e88714785075e2e2606958e6f15e72257754251b00b3e3343960405161071790611e40565b60405180910390a15b61075b565b7fdbc0142a933f84e88714785075e2e2606958e6f15e72257754251b00b3e3343960405161075290611eac565b60405180910390a15b5050565b60008054906101000a900473ffffffffffffffffffffffffffffffffffffffff1673ffffffffffffffffffffffffffffffffffffffff163373ffffffffffffffffffffffffffffffffffffffff16146107b757600080fd5b600060028111156107cb576107ca6116b8565b5b600860009054906101000a900460ff1660028111156107ed576107ec6116b8565b5b0361090d5760006001600081548092919061080790611cdd565b91905055905060405180606001604052808481526020018381526020016001151581525060046000838152602001908152602001600020600082015181600001908051906020019061085a929190611615565b506020820151816001019080519060200190610877929190611615565b5060408201518160020160006101000a81548160ff0219169083151502179055509050507fec542c373a064661ffef02d633752debf28f3e6c9f253680822d9ccf8b47aec6816040516108ca91906117d0565b60405180910390a17f21c4e42f72381047ffdb5eabf08e94a20c83f0a18b0fb486cfd58ba4f6a119086040516108ff90611f18565b60405180910390a150610943565b7f21c4e42f72381047ffdb5eabf08e94a20c83f0a18b0fb486cfd58ba4f6a1190860405161093a90611faa565b60405180910390a15b5050565b600060608083600460008681526020019081526020016000206000016004600087815260200190815260200160002060010181805461098590611ff9565b80601f01602080910402602001604051908101604052809291908181526020018280546109b190611ff9565b80156109fe5780601f106109d3576101008083540402835291602001916109fe565b820191906000526020600020905b8154815290600101906020018083116109e157829003601f168201915b50505050509150808054610a1190611ff9565b80601f0160208091040260200160405190810160405280929190818152602001828054610a3d90611ff9565b8015610a8a5780601f10610a5f57610100808354040283529160200191610a8a565b820191906000526020600020905b815481529060010190602001808311610a6d57829003601f168201915b505050505090509250925092509193909250565b6000600254905090565b6000600354905090565b60008054906101000a900473ffffffffffffffffffffffffffffffffffffffff1673ffffffffffffffffffffffffffffffffffffffff163373ffffffffffffffffffffffffffffffffffffffff1614610b0a57600080fd5b60006002811115610b1e57610b1d6116b8565b5b600860009054906101000a900460ff166002811115610b4057610b3f6116b8565b5b03610bf257600060036000815480929190610b5a90611cdd565b91905055905060405180604001604052808381526020016000815250600760008381526020019081526020016000206000820151816000019080519060200190610ba5929190611615565b50602082015181600101559050507f7ef9fec64222829a95199f2cbc8c191bdc98c0b9e492f2cd6ddc162582c6ddd58183604051610be492919061202a565b60405180910390a150610c28565b7f21c4e42f72381047ffdb5eabf08e94a20c83f0a18b0fb486cfd58ba4f6a11908604051610c1f906120a6565b60405180910390a15b50565b60006060600083600760008681526020019081526020016000206000016007600087815260200190815260200160002060010154818054610c6b90611ff9565b80601f0160208091040260200160405190810160405280929190818152602001828054610c9790611ff9565b8015610ce45780601f10610cb957610100808354040283529160200191610ce4565b820191906000526020600020905b815481529060010190602001808311610cc757829003601f168201915b505050505091509250925092509193909250565b606060008060009050606060005b600254811015610e1257866005600083815260200190815260200160002060000154148015610d4a5750856005600083815260200190815260200160002060010154145b15610dff578280610d5a90611cdd565b935050600760008781526020019081526020016000206000018054610d7e90611ff9565b80601f0160208091040260200160405190810160405280929190818152602001828054610daa90611ff9565b8015610df75780601f10610dcc57610100808354040283529160200191610df7565b820191906000526020600020905b815481529060010190602001808311610dda57829003601f168201915b505050505091505b8080610e0a90611cdd565b915050610d06565b5080829350935050509250929050565b60006060806000806000905060608060005b600254811015610fbf5788600560008381526020019081526020016000206000015403610fac578380610e6690611cdd565b945050600460008a81526020019081526020016000206000018054610e8a90611ff9565b80601f0160208091040260200160405190810160405280929190818152602001828054610eb690611ff9565b8015610f035780601f10610ed857610100808354040283529160200191610f03565b820191906000526020600020905b815481529060010190602001808311610ee657829003601f168201915b50505050509250600460008a81526020019081526020016000206001018054610f2b90611ff9565b80601f0160208091040260200160405190810160405280929190818152602001828054610f5790611ff9565b8015610fa45780601f10610f7957610100808354040283529160200191610fa4565b820191906000526020600020905b815481529060010190602001808311610f8757829003601f168201915b505050505091505b8080610fb790611cdd565b915050610e34565b508782828596509650965096505050509193509193565b600860009054906101000a900460ff1681565b6000600682604051610ffb9190611d61565b908152602001604051809103902060000160009054906101000a900460ff169050919050565b606060008060009050606060005b600254811015611119578560056000838152602001908152602001600020600001540361110657828061106190611cdd565b93505060046000878152602001908152602001600020600001805461108590611ff9565b80601f01602080910402602001604051908101604052809291908181526020018280546110b190611ff9565b80156110fe5780601f106110d3576101008083540402835291602001916110fe565b820191906000526020600020905b8154815290600101906020018083116110e157829003601f168201915b505050505091505b808061111190611cdd565b91505061102f565b508082935093505050915091565b6000600154905090565b60008054906101000a900473ffffffffffffffffffffffffffffffffffffffff1673ffffffffffffffffffffffffffffffffffffffff163373ffffffffffffffffffffffffffffffffffffffff161461118957600080fd5b6000600281111561119d5761119c6116b8565b5b600860009054906101000a900460ff1660028111156111bf576111be6116b8565b5b14806111fe5750600160028111156111da576111d96116b8565b5b600860009054906101000a900460ff1660028111156111fc576111fb6116b8565b5b145b1561126b576002600860006101000a81548160ff02191690836002811115611229576112286116b8565b5b02179055507f8230739840694e52482d047a2e5d5a05c95a1759e32dcb1ae6fd1115ed2cc508600060405161125e9190611c37565b60405180910390a16112a1565b7f21c4e42f72381047ffdb5eabf08e94a20c83f0a18b0fb486cfd58ba4f6a1190860405161129890612112565b60405180910390a15b565b60008054906101000a900473ffffffffffffffffffffffffffffffffffffffff1673ffffffffffffffffffffffffffffffffffffffff163373ffffffffffffffffffffffffffffffffffffffff16146112fb57600080fd5b6000600281111561130f5761130e6116b8565b5b600860009054906101000a900460ff166002811115611331576113306116b8565b5b148061137057506001600281111561134c5761134b6116b8565b5b600860009054906101000a900460ff16600281111561136e5761136d6116b8565b5b145b156114165760405180604001604052806000151581526020018281525060068360405161139d9190611d61565b908152602001604051809103902060008201518160000160006101000a81548160ff021916908315150217905550602082015181600101559050507f5974df95c081c9fd596f932673fe8551ab54bfc5a28b4239455e9c414225340d8282604051611409929190611b99565b60405180910390a161144c565b7fffbd2bf9bab28dbc229b0c51fdd58e55e6111ee633c2b09ab7f4fa20d4ae42b66040516114439061217e565b60405180910390a15b5050565b60008054906101000a900473ffffffffffffffffffffffffffffffffffffffff1673ffffffffffffffffffffffffffffffffffffffff163373ffffffffffffffffffffffffffffffffffffffff16146114a857600080fd5b60018060028111156114bd576114bc6116b8565b5b600860009054906101000a900460ff1660028111156114df576114de6116b8565b5b146114e957600080fd5b6000600860006101000a81548160ff0219169083600281111561150f5761150e6116b8565b5b02179055507f8230739840694e52482d047a2e5d5a05c95a1759e32dcb1ae6fd1115ed2cc50860006040516115449190611c37565b60405180910390a150565b6060600060076000848152602001908152602001600020600001600760008581526020019081526020016000206001015481805461158c90611ff9565b80601f01602080910402602001604051908101604052809291908181526020018280546115b890611ff9565b80156116055780601f106115da57610100808354040283529160200191611605565b820191906000526020600020905b8154815290600101906020018083116115e857829003601f168201915b5050505050915091509150915091565b82805461162190611ff9565b90600052602060002090601f016020900481019282611643576000855561168a565b82601f1061165c57805160ff191683800117855561168a565b8280016001018555821561168a579182015b8281111561168957825182559160200191906001019061166e565b5b509050611697919061169b565b5090565b5b808211156116b457600081600090555060010161169c565b5090565b7f4e487b7100000000000000000000000000000000000000000000000000000000600052602160045260246000fd5b600381106116f8576116f76116b8565b5b50565b6000819050611709826116e7565b919050565b6000611719826116fb565b9050919050565b6117298161170e565b82525050565b60006020820190506117446000830184611720565b92915050565b6000604051905090565b600080fd5b600080fd5b6000819050919050565b6117718161175e565b811461177c57600080fd5b50565b60008135905061178e81611768565b92915050565b6000602082840312156117aa576117a9611754565b5b60006117b88482850161177f565b91505092915050565b6117ca8161175e565b82525050565b60006020820190506117e560008301846117c1565b92915050565b600080fd5b600080fd5b6000601f19601f8301169050919050565b7f4e487b7100000000000000000000000000000000000000000000000000000000600052604160045260246000fd5b61183e826117f5565b810181811067ffffffffffffffff8211171561185d5761185c611806565b5b80604052505050565b600061187061174a565b905061187c8282611835565b919050565b600067ffffffffffffffff82111561189c5761189b611806565b5b6118a5826117f5565b9050602081019050919050565b82818337600083830152505050565b60006118d46118cf84611881565b611866565b9050828152602081018484840111156118f0576118ef6117f0565b5b6118fb8482856118b2565b509392505050565b600082601f830112611918576119176117eb565b5b81356119288482602086016118c1565b91505092915050565b6000806040838503121561194857611947611754565b5b60006119568582860161177f565b925050602083013567ffffffffffffffff81111561197757611976611759565b5b61198385828601611903565b9150509250929050565b600080604083850312156119a4576119a3611754565b5b600083013567ffffffffffffffff8111156119c2576119c1611759565b5b6119ce85828601611903565b925050602083013567ffffffffffffffff8111156119ef576119ee611759565b5b6119fb85828601611903565b9150509250929050565b600081519050919050565b600082825260208201905092915050565b60005b83811015611a3f578082015181840152602081019050611a24565b83811115611a4e576000848401525b50505050565b6000611a5f82611a05565b611a698185611a10565b9350611a79818560208601611a21565b611a82816117f5565b840191505092915050565b6000606082019050611aa260008301866117c1565b8181036020830152611ab48185611a54565b90508181036040830152611ac88184611a54565b9050949350505050565b600060208284031215611ae857611ae7611754565b5b600082013567ffffffffffffffff811115611b0657611b05611759565b5b611b1284828501611903565b91505092915050565b6000606082019050611b3060008301866117c1565b8181036020830152611b428185611a54565b9050611b5160408301846117c1565b949350505050565b60008060408385031215611b7057611b6f611754565b5b6000611b7e8582860161177f565b9250506020611b8f8582860161177f565b9150509250929050565b60006040820190508181036000830152611bb38185611a54565b9050611bc260208301846117c1565b9392505050565b6000608082019050611bde60008301876117c1565b8181036020830152611bf08186611a54565b90508181036040830152611c048185611a54565b9050611c1360608301846117c1565b95945050505050565b60008115159050919050565b611c3181611c1c565b82525050565b6000602082019050611c4c6000830184611c28565b92915050565b60008060408385031215611c6957611c68611754565b5b600083013567ffffffffffffffff811115611c8757611c86611759565b5b611c9385828601611903565b9250506020611ca48582860161177f565b9150509250929050565b7f4e487b7100000000000000000000000000000000000000000000000000000000600052601160045260246000fd5b6000611ce88261175e565b91507fffffffffffffffffffffffffffffffffffffffffffffffffffffffffffffffff8203611d1a57611d19611cae565b5b600182019050919050565b600081905092915050565b6000611d3b82611a05565b611d458185611d25565b9350611d55818560208601611a21565b80840191505092915050565b6000611d6d8284611d30565b915081905092915050565b6000611d838261175e565b9150611d8e8361175e565b9250827fffffffffffffffffffffffffffffffffffffffffffffffffffffffffffffffff03821115611dc357611dc2611cae565b5b828201905092915050565b7f766f74696e67206661696c6564203a20496e76616c69642043616e646964617460008201527f65202f20566f7465720000000000000000000000000000000000000000000000602082015250565b6000611e2a602983611a10565b9150611e3582611dce565b604082019050919050565b60006020820190508181036000830152611e5981611e1d565b9050919050565b7f566f74696e67206e6f74207374617274656420796574202f2070617573656400600082015250565b6000611e96601f83611a10565b9150611ea182611e60565b602082019050919050565b60006020820190508181036000830152611ec581611e89565b9050919050565b7f43616e6469646174652041646465640000000000000000000000000000000000600082015250565b6000611f02600f83611a10565b9150611f0d82611ecc565b602082019050919050565b60006020820190508181036000830152611f3181611ef5565b9050919050565b7f566f74696e672069732053746172746564207c20456c656374696f6e20456e6460008201527f6564203a28000000000000000000000000000000000000000000000000000000602082015250565b6000611f94602583611a10565b9150611f9f82611f38565b604082019050919050565b60006020820190508181036000830152611fc381611f87565b9050919050565b7f4e487b7100000000000000000000000000000000000000000000000000000000600052602260045260246000fd5b6000600282049050600182168061201157607f821691505b60208210810361202457612023611fca565b5b50919050565b600060408201905061203f60008301856117c1565b81810360208301526120518184611a54565b90509392505050565b7f5374617465204973737565000000000000000000000000000000000000000000600082015250565b6000612090600b83611a10565b915061209b8261205a565b602082019050919050565b600060208201905081810360008301526120bf81612083565b9050919050565b7f416c726561647920456e64656400000000000000000000000000000000000000600082015250565b60006120fc600d83611a10565b9150612107826120c6565b602082019050919050565b6000602082019050818103600083015261212b816120ef565b9050919050565b7f566f74696e672069732073746172746564202f20456e64656400000000000000600082015250565b6000612168601983611a10565b915061217382612132565b602082019050919050565b600060208201905081810360008301526121978161215b565b905091905056fea26469706673582212205c108c00286956b7c45213aa8f22ff48bc48d19a19b29f3e81c494faaa61e2f664736f6c634300080e0033",
  "immutableReferences": {},
  "source": "// SPDX-License-Identifier: GPL-3.0\n\npragma solidity ^0.8.13;\n// written for Solidity version 0.4.18 and above that doesnt break functionality\n\ncontract Ballot {\n    // Events\n    event AddedCandidate(uint candidateID);\n    event AddedEntry(string rid, uint id);\n    event Error(string error);\n\n    // Error Dispatchers\n    // 1: Validator | 2: Voting | 3: Department\n    event Error1(string error);\n    event Error2(string error);\n    event Error3(string error);\n    \n\n    // States Events\n    event isCreated(bool cState);\n    event isVoting(bool cState);\n\n    event AddedCat(uint id, string name);\n\n    // describes a Voter, which has an id and the ID of the candidate they voted for\n    address owner;\n\n    constructor ()  {\n        owner = msg.sender;\n        state = State.Created;\n        emit isCreated(true);\n        emit isVoting(false);\n    }\n\n    // modifiers\n    modifier onlyOwner {\n        require(msg.sender == owner);\n        _;\n    }\n\n    modifier inState(State _state) {\n        require((state == _state));\n        _;\n    }\n    struct Voter {\n        uint candidateIDVote;\n        uint catid;\n    }\n\n\n    // describes a Candidate\n    struct Candidate {\n        string name;\n        string party;\n        // \"bool doesExist\" is to check if this Struct exists\n        // This is so we can keep track of the candidates \n        bool doesExist;\n    }\n\n    // Categories\n    struct Cats {\n        string name;\n        uint count;\n    }\n\n    // structfor vals\n    struct Anon {\n        bool voted;\n        uint id;\n    }\n\n\n    // These state variables are used keep track of the number of Candidates/Voters \n    // and used to as a way to index them     \n    uint numCandidates; // declares a state variable - number Of Candidates\n    uint numVoters;\n    uint numCats;\n\n\n    // Think of these as a hash table, with the key as a uint and value of \n    // the struct Candidate/Voter. These mappings will be used in the majority\n    // of our transactions/calls\n    // These mappings will hold all the candidates and Voters respectively\n    mapping(uint => Candidate) candidates;\n    mapping(uint => Voter) voters;\n    mapping(string => Anon) anony;\n    mapping(uint => Cats) cats;\n\n    // States\n    enum State {Created, Voting, Ended}\n    State public state;\n\n\n    /* * * * * * * * * * * * * * * * * * * * * * * * * * * * * * * *\n     *  These functions perform transactions, editing the mappings *\n     * * * * * * * * * * * * * * * * * * * * * * * * * * * * * * * */\n\n    // 4da Validations / entry of category id\n    function entry(string memory rid, uint id) onlyOwner public\n    \n    { // need state validation here; ongoing voting\n        if (state == State.Created || state == State.Voting){\n\n            anony[rid] = Anon(false, id);\n            emit AddedEntry(rid, id);\n\n        } else{\n            emit Error1(\"Voting is started / Ended\");\n        }\n    }\n\n    // state init for voting\n    function startVoting() onlyOwner public\n    inState(State.Created)\n    {\n        state = State.Voting;\n        emit isVoting(true);\n    }\n\n    // stop voting\n    function stopVoting() onlyOwner public\n    inState(State.Voting)\n    {   // a change\n        state = State.Created;\n        emit isVoting(false);\n    }\n\n    // ending\n    function end() onlyOwner public\n   \n    {   \n       if(state == State.Created || state == State.Voting){\n            state = State.Ended;\n        emit isVoting(false);\n       }\n       else{\n           emit Error3(\"Already Ended\");\n       }\n    }\n\n    // error handled function\n    function addCandidate(string memory name, string memory party) onlyOwner public\n    {\n        if (state == State.Created)\n    {\n        // candidateID is the return variable\n        uint candidateID = numCandidates++;\n        // Create new Candidate Struct with name and saves it to storage.\n        candidates[candidateID] = Candidate(name, party, true);\n        emit AddedCandidate(candidateID);\n        emit Error3(\"Candidate Added\");\n    }\n    else {\n        emit Error3(\"Voting is Started | Election Ended :(\");\n    }\n    }\n\n    function addCats(string memory name)\n    onlyOwner\n    public\n    \n    {\n        if (state == State.Created){\n\n            uint id = numCats++;\n            cats[id] = Cats(name, 0);\n\n            emit AddedCat(id, name);\n\n        } else {\n            \n            emit Error3(\"State Issue\");\n        }\n\n    }\n\n    function vote(uint candidateID, string memory rid) public\n    \n    {\n       if (state == State.Voting){\n\n            // checks if the struct exists for that candidate\n        if (candidates[candidateID].doesExist == true && anony[rid].voted == false) {\n            uint voterID = numVoters++;\n            uint id = anony[rid].id;\n\n            //voterID is the return variable\n            voters[voterID] = Voter(candidateID, id);\n            // increment cats\n            cats[id].count += 1;\n\n            // setter voter voted\n            anony[rid].voted = true;\n        }\n        else {\n            emit Error2(\"voting failed : Invalid Candidate / Voter\");\n        }\n\n       }else {\n           emit Error2(\"Voting not started yet / paused\");\n       }\n    }\n\n    /* * * * * * * * * * * * * * * * * * * * * * * * * * \n     *  Getter Functions *\n     * * * * * * * * * * * * * * * * * * * * * * * * * */\n\n\n    // finds the total amount of votes for a specific candidate by looping\n    // through voters \n    function totalVotes(uint candidateID) view public returns (uint) {\n        uint numOfVotes = 0;\n        // we will return this\n        for (uint i = 0; i < numVoters; i++) {\n            // if the voter votes for this specific candidate, we increment the number\n            if (voters[i].candidateIDVote == candidateID) {\n                numOfVotes++;\n            }\n        }\n        return numOfVotes;\n    }\n\n    function voteswithId(uint candidateID) view public returns (string memory, uint) {\n        uint numOfVotes = 0;\n        string memory name;\n\n        for (uint i = 0; i < numVoters; i++) {\n            // if the voter votes for this specific candidate, we increment the number\n            if (voters[i].candidateIDVote == candidateID) {\n                numOfVotes++;\n                // retrieve name\n                name = candidates[candidateID].name;\n            }\n        }\n        return (name, numOfVotes);\n    }\n\n    // votes by specific candidate id & category\n    function advancedVotes(uint candidateid, uint inputcat) view public returns (string memory, uint) {\n        uint numVotes = 0;\n        string memory name;\n        for (uint i = 0; i < numVoters; i++) {\n            if (voters[i].candidateIDVote == candidateid && voters[i].catid == inputcat) {\n                numVotes++;\n                name = cats[inputcat].name;\n            }\n        }\n        return (name, numVotes);\n\n    }\n\n    // return candidate details and votes\n    function getCandidateData(uint candidateID) view public returns (uint, string memory, string memory, uint) {\n        uint numOfVotes = 0;\n        string memory name;\n        string memory party;\n\n        for (uint i = 0; i < numVoters; i++) {\n            // if the voter votes for this specific candidate, we increment the number\n            if (voters[i].candidateIDVote == candidateID) {\n                numOfVotes++;\n                // retrieve name\n                name = candidates[candidateID].name;\n                party = candidates[candidateID].party;\n            }\n        }\n        return (candidateID, name, party, numOfVotes);\n    }\n \n    // votes by cats\n    function votesbycat(uint id) public view returns ( string memory, uint) {\n        return (cats[id].name, cats[id].count);\n    }\n\n    // Return Cat Details\n    function returnCats(uint id) public view returns (uint, string memory, uint) {\n        return (id, cats[id].name, cats[id].count);\n    }\n\n    // return cats count\n    function returnCatCount()\n    public\n    view\n    returns\n    (uint)\n    {\n        return numCats;\n\n    }\n\n    function getNumOfCandidates() public view returns (uint) {\n        return numCandidates;\n    }\n\n    function getNumOfVoters() public view returns (uint) {\n        return numVoters;\n    }\n    // returns candidate information, including its ID, name, and party\n    function getCandidate(uint candidateID) public view returns (uint, string memory, string memory) {\n        return (candidateID, candidates[candidateID].name, candidates[candidateID].party);\n    }\n\n    function returnMappingValue(string memory rid) public view returns (bool) {\n        return (anony[rid].voted);\n    }\n\n    function currentState() public view returns (State) {\n        return state;\n    }\n}",
  "sourcePath": "/home/yux/dev/dart/vote/votedepartment/contracts/Ballot.sol",
  "compiler": {
    "name": "solc",
    "version": "0.8.14+commit.80d49f37.Emscripten.clang"
  },
  "schemaVersion": "3.4.3",
  "updatedAt": "2022-06-02T17:53:42.861Z",
  "networkType": "ethereum",
  "devdoc": {
    "kind": "dev",
    "methods": {},
    "version": 1
  },
  "userdoc": {
    "kind": "user",
    "methods": {},
    "version": 1
  }
}