{
  "contractName": "Ballot",
  "abi": [
    {
      "inputs": [],
      "stateMutability": "nonpayable",
      "type": "constructor"
    },
    {
      "anonymous": false,
      "inputs": [
        {
          "indexed": false,
          "internalType": "uint256",
          "name": "candidateID",
          "type": "uint256"
        }
      ],
      "name": "AddedCandidate",
      "type": "event"
    },
    {
      "anonymous": false,
      "inputs": [
        {
          "indexed": false,
          "internalType": "string",
          "name": "rid",
          "type": "string"
        }
      ],
      "name": "AddedEntry",
      "type": "event"
    },
    {
      "anonymous": false,
      "inputs": [
        {
          "indexed": false,
          "internalType": "string",
          "name": "rid",
          "type": "string"
        }
      ],
      "name": "Error",
      "type": "event"
    },
    {
      "inputs": [
        {
          "internalType": "string",
          "name": "rid",
          "type": "string"
        }
      ],
      "name": "entry",
      "outputs": [],
      "stateMutability": "nonpayable",
      "type": "function"
    },
    {
      "inputs": [
        {
          "internalType": "string",
          "name": "name",
          "type": "string"
        },
        {
          "internalType": "string",
          "name": "party",
          "type": "string"
        }
      ],
      "name": "addCandidate",
      "outputs": [],
      "stateMutability": "nonpayable",
      "type": "function"
    },
    {
      "inputs": [
        {
          "internalType": "uint256",
          "name": "candidateID",
          "type": "uint256"
        },
        {
          "internalType": "string",
          "name": "rid",
          "type": "string"
        }
      ],
      "name": "vote",
      "outputs": [],
      "stateMutability": "nonpayable",
      "type": "function"
    },
    {
      "inputs": [
        {
          "internalType": "uint256",
          "name": "candidateID",
          "type": "uint256"
        }
      ],
      "name": "totalVotes",
      "outputs": [
        {
          "internalType": "uint256",
          "name": "",
          "type": "uint256"
        }
      ],
      "stateMutability": "view",
      "type": "function",
      "constant": true
    },
    {
      "inputs": [],
      "name": "getNumOfCandidates",
      "outputs": [
        {
          "internalType": "uint256",
          "name": "",
          "type": "uint256"
        }
      ],
      "stateMutability": "view",
      "type": "function",
      "constant": true
    },
    {
      "inputs": [],
      "name": "getNumOfVoters",
      "outputs": [
        {
          "internalType": "uint256",
          "name": "",
          "type": "uint256"
        }
      ],
      "stateMutability": "view",
      "type": "function",
      "constant": true
    },
    {
      "inputs": [
        {
          "internalType": "uint256",
          "name": "candidateID",
          "type": "uint256"
        }
      ],
      "name": "getCandidate",
      "outputs": [
        {
          "internalType": "uint256",
          "name": "",
          "type": "uint256"
        },
        {
          "internalType": "string",
          "name": "",
          "type": "string"
        },
        {
          "internalType": "string",
          "name": "",
          "type": "string"
        }
      ],
      "stateMutability": "view",
      "type": "function",
      "constant": true
    },
    {
      "inputs": [
        {
          "internalType": "string",
          "name": "rid",
          "type": "string"
        }
      ],
      "name": "returnMappingValue",
      "outputs": [
        {
          "internalType": "bool",
          "name": "",
          "type": "bool"
        }
      ],
      "stateMutability": "view",
      "type": "function",
      "constant": true
    }
  ],
  "bytecode": "0x608060405234801561001057600080fd5b50336000806101000a81548173ffffffffffffffffffffffffffffffffffffffff021916908373ffffffffffffffffffffffffffffffffffffffff160217905550610d0c806100606000396000f3fe608060405234801561001057600080fd5b50600436106100885760003560e01c806365fc783c1161005b57806365fc783c14610127578063c4eee37c14610145578063c765fd6014610161578063e8685ba11461019157610088565b806319e6e1581461008d57806324108475146100bd57806326541b56146100d957806335b8e820146100f5575b600080fd5b6100a760048036038101906100a291906107cd565b6101af565b6040516100b49190610809565b60405180910390f35b6100d760048036038101906100d2919061096a565b61020c565b005b6100f360048036038101906100ee91906109c6565b61033a565b005b61010f600480360381019061010a91906107cd565b610477565b60405161011e93929190610ac6565b60405180910390f35b61012f6105ce565b60405161013c9190610809565b60405180910390f35b61015f600480360381019061015a9190610b0b565b6105d8565b005b61017b60048036038101906101769190610b0b565b6106a1565b6040516101889190610b6f565b60405180910390f35b6101996106d6565b6040516101a69190610809565b60405180910390f35b6000806000905060005b60025481101561020257836004600083815260200190815260200160002060000154036101ef5781806101eb90610bb9565b9250505b80806101fa90610bb9565b9150506101b9565b5080915050919050565b600115156003600084815260200190815260200160002060020160009054906101000a900460ff1615151480156102725750600015156005826040516102529190610c3d565b908152602001604051809103902060009054906101000a900460ff161515145b156102fe5760006002600081548092919061028c90610bb9565b919050559050604051806020016040528084815250600460008381526020019081526020016000206000820151816000015590505060016005836040516102d39190610c3d565b908152602001604051809103902060006101000a81548160ff02191690831515021790555050610336565b7f08c379a0afcc32b1a39302f7cb8073359698411ab5fd6e3edb2c02c0b5fba8aa8160405161032d9190610c54565b60405180910390a15b5050565b60008054906101000a900473ffffffffffffffffffffffffffffffffffffffff1673ffffffffffffffffffffffffffffffffffffffff163373ffffffffffffffffffffffffffffffffffffffff161461039257600080fd5b6000600160008154809291906103a790610bb9565b9190505590506040518060600160405280848152602001838152602001600115158152506003600083815260200190815260200160002060008201518160000190805190602001906103fa9291906106e0565b5060208201518160010190805190602001906104179291906106e0565b5060408201518160020160006101000a81548160ff0219169083151502179055509050507fec542c373a064661ffef02d633752debf28f3e6c9f253680822d9ccf8b47aec68160405161046a9190610809565b60405180910390a1505050565b60006060808360036000868152602001908152602001600020600001600360008781526020019081526020016000206001018180546104b590610ca5565b80601f01602080910402602001604051908101604052809291908181526020018280546104e190610ca5565b801561052e5780601f106105035761010080835404028352916020019161052e565b820191906000526020600020905b81548152906001019060200180831161051157829003601f168201915b5050505050915080805461054190610ca5565b80601f016020809104026020016040519081016040528092919081815260200182805461056d90610ca5565b80156105ba5780601f1061058f576101008083540402835291602001916105ba565b820191906000526020600020905b81548152906001019060200180831161059d57829003601f168201915b505050505090509250925092509193909250565b6000600254905090565b60008054906101000a900473ffffffffffffffffffffffffffffffffffffffff1673ffffffffffffffffffffffffffffffffffffffff163373ffffffffffffffffffffffffffffffffffffffff161461063057600080fd5b60006005826040516106429190610c3d565b908152602001604051809103902060006101000a81548160ff0219169083151502179055507f59d60113b088cfa34024200c1f794ebe02760b7508930bd497adc50b229180f9816040516106969190610c54565b60405180910390a150565b60006005826040516106b39190610c3d565b908152602001604051809103902060009054906101000a900460ff169050919050565b6000600154905090565b8280546106ec90610ca5565b90600052602060002090601f01602090048101928261070e5760008555610755565b82601f1061072757805160ff1916838001178555610755565b82800160010185558215610755579182015b82811115610754578251825591602001919060010190610739565b5b5090506107629190610766565b5090565b5b8082111561077f576000816000905550600101610767565b5090565b6000604051905090565b600080fd5b600080fd5b6000819050919050565b6107aa81610797565b81146107b557600080fd5b50565b6000813590506107c7816107a1565b92915050565b6000602082840312156107e3576107e261078d565b5b60006107f1848285016107b8565b91505092915050565b61080381610797565b82525050565b600060208201905061081e60008301846107fa565b92915050565b600080fd5b600080fd5b6000601f19601f8301169050919050565b7f4e487b7100000000000000000000000000000000000000000000000000000000600052604160045260246000fd5b6108778261082e565b810181811067ffffffffffffffff821117156108965761089561083f565b5b80604052505050565b60006108a9610783565b90506108b5828261086e565b919050565b600067ffffffffffffffff8211156108d5576108d461083f565b5b6108de8261082e565b9050602081019050919050565b82818337600083830152505050565b600061090d610908846108ba565b61089f565b90508281526020810184848401111561092957610928610829565b5b6109348482856108eb565b509392505050565b600082601f83011261095157610950610824565b5b81356109618482602086016108fa565b91505092915050565b600080604083850312156109815761098061078d565b5b600061098f858286016107b8565b925050602083013567ffffffffffffffff8111156109b0576109af610792565b5b6109bc8582860161093c565b9150509250929050565b600080604083850312156109dd576109dc61078d565b5b600083013567ffffffffffffffff8111156109fb576109fa610792565b5b610a078582860161093c565b925050602083013567ffffffffffffffff811115610a2857610a27610792565b5b610a348582860161093c565b9150509250929050565b600081519050919050565b600082825260208201905092915050565b60005b83811015610a78578082015181840152602081019050610a5d565b83811115610a87576000848401525b50505050565b6000610a9882610a3e565b610aa28185610a49565b9350610ab2818560208601610a5a565b610abb8161082e565b840191505092915050565b6000606082019050610adb60008301866107fa565b8181036020830152610aed8185610a8d565b90508181036040830152610b018184610a8d565b9050949350505050565b600060208284031215610b2157610b2061078d565b5b600082013567ffffffffffffffff811115610b3f57610b3e610792565b5b610b4b8482850161093c565b91505092915050565b60008115159050919050565b610b6981610b54565b82525050565b6000602082019050610b846000830184610b60565b92915050565b7f4e487b7100000000000000000000000000000000000000000000000000000000600052601160045260246000fd5b6000610bc482610797565b91507fffffffffffffffffffffffffffffffffffffffffffffffffffffffffffffffff8203610bf657610bf5610b8a565b5b600182019050919050565b600081905092915050565b6000610c1782610a3e565b610c218185610c01565b9350610c31818560208601610a5a565b80840191505092915050565b6000610c498284610c0c565b915081905092915050565b60006020820190508181036000830152610c6e8184610a8d565b905092915050565b7f4e487b7100000000000000000000000000000000000000000000000000000000600052602260045260246000fd5b60006002820490506001821680610cbd57607f821691505b602082108103610cd057610ccf610c76565b5b5091905056fea26469706673582212203f862a05d2b1ca6af4388dfc4951b2e072a335de464bd7956227bd3771d7072b64736f6c634300080d0033",
  "immutableReferences": {},
  "source": "// SPDX-License-Identifier: GPL-3.0\n\npragma solidity ^0.8.10;\n// written for Solidity version 0.4.18 and above that doesnt break functionality\n\ncontract Ballot {\n    // an event that is called whenever a Candidate is added so the frontend could\n    // appropriately display the candidate with the right element id (it is used\n    // to vote for the candidate, since it is one of arguments for the function \"vote\")\n    event AddedCandidate(uint candidateID);\n    event AddedEntry(string rid);\n    event Error(string rid);\n\n    // describes a Voter, which has an id and the ID of the candidate they voted for\n    address owner;\n\n    constructor ()  {\n        owner = msg.sender;\n\n    }\n    modifier onlyOwner {\n       require(msg.sender == owner);\n        _;\n    }\n    struct Voter {\n        uint candidateIDVote;\n    }\n    // describes a Candidate\n    struct Candidate {\n        string name;\n        string party;\n        // \"bool doesExist\" is to check if this Struct exists\n        // This is so we can keep track of the candidates \n        bool doesExist;\n    }\n\n    struct Anon {\n        string rid;\n        bool voted;\n    }\n\n    // These state variables are used keep track of the number of Candidates/Voters \n    // and used to as a way to index them     \n    uint numCandidates; // declares a state variable - number Of Candidates\n    uint numVoters;\n\n\n    // Think of these as a hash table, with the key as a uint and value of \n    // the struct Candidate/Voter. These mappings will be used in the majority\n    // of our transactions/calls\n    // These mappings will hold all the candidates and Voters respectively\n    mapping(uint => Candidate) candidates;\n    mapping(uint => Voter) voters;\n    mapping(string => bool) anony;\n\n    /* * * * * * * * * * * * * * * * * * * * * * * * * * * * * * * *\n     *  These functions perform transactions, editing the mappings *\n     * * * * * * * * * * * * * * * * * * * * * * * * * * * * * * * */\n    // 4da Validations\n    function entry(string memory rid) onlyOwner public {\n        \n        anony[rid] = (false);\n        emit AddedEntry(rid);\n    }\n\n\n    function addCandidate(string memory name, string memory party) onlyOwner public {\n        // candidateID is the return variable\n        uint candidateID = numCandidates++;\n        // Create new Candidate Struct with name and saves it to storage.\n        candidates[candidateID] = Candidate(name,party,true);\n        emit AddedCandidate(candidateID);\n    }\n\n    function vote(uint candidateID, string memory rid) public {\n        // checks if the struct exists for that candidate\n        if (candidates[candidateID].doesExist == true && anony[rid] == false ) {\n            uint voterID = numVoters++;\n            //voterID is the return variable\n            voters[voterID] = Voter(candidateID);\n            // set\n            anony[rid] = true; \n        }\n        else {\n            emit Error(rid);\n        }\n    }\n\n    /* * * * * * * * * * * * * * * * * * * * * * * * * * \n     *  Getter Functions *\n     * * * * * * * * * * * * * * * * * * * * * * * * * */\n\n\n    // finds the total amount of votes for a specific candidate by looping\n    // through voters \n    function totalVotes(uint candidateID) view public returns (uint) {\n        uint numOfVotes = 0;\n        // we will return this\n        for (uint i = 0; i < numVoters; i++) {\n            // if the voter votes for this specific candidate, we increment the number\n            if (voters[i].candidateIDVote == candidateID) {\n                numOfVotes++;\n            }\n        }\n        return numOfVotes;\n    }\n\n    function getNumOfCandidates() public view returns (uint) {\n        return numCandidates;\n    }\n\n    function getNumOfVoters() public view returns (uint) {\n        return numVoters;\n    }\n    // returns candidate information, including its ID, name, and party\n    function getCandidate(uint candidateID) public view returns (uint, string memory, string memory) {\n        return (candidateID, candidates[candidateID].name, candidates[candidateID].party);\n    }\n\n    function returnMappingValue(string memory rid) public view returns ( bool) {\n        return (anony[rid]);\n    }  \n}",
  "sourcePath": "/home/yux/dev/dart/vote/votedepartment/contracts/Ballot.sol",
  "compiler": {
    "name": "solc",
    "version": "0.8.13+commit.abaa5c0e.Emscripten.clang"
  },
  "schemaVersion": "3.4.6",
  "updatedAt": "2022-03-22T19:01:26.308Z",
  "networkType": "ethereum",
  "devdoc": {
    "kind": "dev",
    "methods": {},
    "version": 1
  },
  "userdoc": {
    "kind": "user",
    "methods": {},
    "version": 1
  }
}