{
  "contractName": "Ballot",
  "abi": [
    {
      "inputs": [],
      "stateMutability": "nonpayable",
      "type": "constructor"
    },
    {
      "anonymous": false,
      "inputs": [
        {
          "indexed": false,
          "internalType": "uint256",
          "name": "candidateID",
          "type": "uint256"
        }
      ],
      "name": "AddedCandidate",
      "type": "event"
    },
    {
      "anonymous": false,
      "inputs": [
        {
          "indexed": false,
          "internalType": "string",
          "name": "rid",
          "type": "string"
        }
      ],
      "name": "AddedEntry",
      "type": "event"
    },
    {
      "inputs": [
        {
          "internalType": "string",
          "name": "rid",
          "type": "string"
        }
      ],
      "name": "entry",
      "outputs": [],
      "stateMutability": "nonpayable",
      "type": "function"
    },
    {
      "inputs": [
        {
          "internalType": "string",
          "name": "name",
          "type": "string"
        },
        {
          "internalType": "string",
          "name": "party",
          "type": "string"
        }
      ],
      "name": "addCandidate",
      "outputs": [],
      "stateMutability": "nonpayable",
      "type": "function"
    },
    {
      "inputs": [
        {
          "internalType": "string",
          "name": "uid",
          "type": "string"
        },
        {
          "internalType": "uint256",
          "name": "candidateID",
          "type": "uint256"
        },
        {
          "internalType": "string",
          "name": "rid",
          "type": "string"
        }
      ],
      "name": "vote",
      "outputs": [],
      "stateMutability": "nonpayable",
      "type": "function"
    },
    {
      "inputs": [
        {
          "internalType": "uint256",
          "name": "candidateID",
          "type": "uint256"
        }
      ],
      "name": "totalVotes",
      "outputs": [
        {
          "internalType": "uint256",
          "name": "",
          "type": "uint256"
        }
      ],
      "stateMutability": "view",
      "type": "function",
      "constant": true
    },
    {
      "inputs": [],
      "name": "getNumOfCandidates",
      "outputs": [
        {
          "internalType": "uint256",
          "name": "",
          "type": "uint256"
        }
      ],
      "stateMutability": "view",
      "type": "function",
      "constant": true
    },
    {
      "inputs": [],
      "name": "getNumOfVoters",
      "outputs": [
        {
          "internalType": "uint256",
          "name": "",
          "type": "uint256"
        }
      ],
      "stateMutability": "view",
      "type": "function",
      "constant": true
    },
    {
      "inputs": [
        {
          "internalType": "uint256",
          "name": "candidateID",
          "type": "uint256"
        }
      ],
      "name": "getCandidate",
      "outputs": [
        {
          "internalType": "uint256",
          "name": "",
          "type": "uint256"
        },
        {
          "internalType": "string",
          "name": "",
          "type": "string"
        },
        {
          "internalType": "string",
          "name": "",
          "type": "string"
        }
      ],
      "stateMutability": "view",
      "type": "function",
      "constant": true
    }
  ],
  "bytecode": "0x608060405234801561001057600080fd5b50336000806101000a81548173ffffffffffffffffffffffffffffffffffffffff021916908373ffffffffffffffffffffffffffffffffffffffff160217905550610d69806100606000396000f3fe608060405234801561001057600080fd5b506004361061007d5760003560e01c806365fc783c1161005b57806365fc783c14610100578063c4eee37c1461011e578063d47ec9691461013a578063e8685ba1146101565761007d565b806319e6e1581461008257806326541b56146100b257806335b8e820146100ce575b600080fd5b61009c60048036038101906100979190610781565b610174565b6040516100a991906107bd565b60405180910390f35b6100cc60048036038101906100c7919061091e565b6101d2565b005b6100e860048036038101906100e39190610781565b61030f565b6040516100f793929190610a1e565b60405180910390f35b610108610466565b60405161011591906107bd565b60405180910390f35b61013860048036038101906101339190610a63565b610470565b005b610154600480360381019061014f9190610aac565b610578565b005b61015e61068a565b60405161016b91906107bd565b60405180910390f35b6000806000905060005b6002548110156101c85783600460008381526020019081526020016000206001015414156101b55781806101b190610b66565b9250505b80806101c090610b66565b91505061017e565b5080915050919050565b60008054906101000a900473ffffffffffffffffffffffffffffffffffffffff1673ffffffffffffffffffffffffffffffffffffffff163373ffffffffffffffffffffffffffffffffffffffff161461022a57600080fd5b60006001600081548092919061023f90610b66565b919050559050604051806060016040528084815260200183815260200160011515815250600360008381526020019081526020016000206000820151816000019080519060200190610292929190610694565b5060208201518160010190805190602001906102af929190610694565b5060408201518160020160006101000a81548160ff0219169083151502179055509050507fec542c373a064661ffef02d633752debf28f3e6c9f253680822d9ccf8b47aec68160405161030291906107bd565b60405180910390a1505050565b600060608083600360008681526020019081526020016000206000016003600087815260200190815260200160002060010181805461034d90610bde565b80601f016020809104026020016040519081016040528092919081815260200182805461037990610bde565b80156103c65780601f1061039b576101008083540402835291602001916103c6565b820191906000526020600020905b8154815290600101906020018083116103a957829003601f168201915b505050505091508080546103d990610bde565b80601f016020809104026020016040519081016040528092919081815260200182805461040590610bde565b80156104525780601f1061042757610100808354040283529160200191610452565b820191906000526020600020905b81548152906001019060200180831161043557829003601f168201915b505050505090509250925092509193909250565b6000600254905090565b60008054906101000a900473ffffffffffffffffffffffffffffffffffffffff1673ffffffffffffffffffffffffffffffffffffffff163373ffffffffffffffffffffffffffffffffffffffff16146104c857600080fd5b6040518060400160405280828152602001600015158152506005826040516104f09190610c4c565b9081526020016040518091039020600082015181600001908051906020019061051a929190610694565b5060208201518160010160006101000a81548160ff0219169083151502179055509050507f59d60113b088cfa34024200c1f794ebe02760b7508930bd497adc50b229180f98160405161056d9190610c63565b60405180910390a150565b600115156003600084815260200190815260200160002060020160009054906101000a900460ff1615151480156105e15750600015156005826040516105be9190610c4c565b908152602001604051809103902060010160009054906101000a900460ff161515145b15610685576000600260008154809291906105fb90610b66565b91905055905060405180604001604052808561061690610ccc565b815260200184815250600460008381526020019081526020016000206000820151816000015560208201518160010155905050600160058360405161065b9190610c4c565b908152602001604051809103902060010160006101000a81548160ff021916908315150217905550505b505050565b6000600154905090565b8280546106a090610bde565b90600052602060002090601f0160209004810192826106c25760008555610709565b82601f106106db57805160ff1916838001178555610709565b82800160010185558215610709579182015b828111156107085782518255916020019190600101906106ed565b5b509050610716919061071a565b5090565b5b8082111561073357600081600090555060010161071b565b5090565b6000604051905090565b600080fd5b600080fd5b6000819050919050565b61075e8161074b565b811461076957600080fd5b50565b60008135905061077b81610755565b92915050565b60006020828403121561079757610796610741565b5b60006107a58482850161076c565b91505092915050565b6107b78161074b565b82525050565b60006020820190506107d260008301846107ae565b92915050565b600080fd5b600080fd5b6000601f19601f8301169050919050565b7f4e487b7100000000000000000000000000000000000000000000000000000000600052604160045260246000fd5b61082b826107e2565b810181811067ffffffffffffffff8211171561084a576108496107f3565b5b80604052505050565b600061085d610737565b90506108698282610822565b919050565b600067ffffffffffffffff821115610889576108886107f3565b5b610892826107e2565b9050602081019050919050565b82818337600083830152505050565b60006108c16108bc8461086e565b610853565b9050828152602081018484840111156108dd576108dc6107dd565b5b6108e884828561089f565b509392505050565b600082601f830112610905576109046107d8565b5b81356109158482602086016108ae565b91505092915050565b6000806040838503121561093557610934610741565b5b600083013567ffffffffffffffff81111561095357610952610746565b5b61095f858286016108f0565b925050602083013567ffffffffffffffff8111156109805761097f610746565b5b61098c858286016108f0565b9150509250929050565b600081519050919050565b600082825260208201905092915050565b60005b838110156109d05780820151818401526020810190506109b5565b838111156109df576000848401525b50505050565b60006109f082610996565b6109fa81856109a1565b9350610a0a8185602086016109b2565b610a13816107e2565b840191505092915050565b6000606082019050610a3360008301866107ae565b8181036020830152610a4581856109e5565b90508181036040830152610a5981846109e5565b9050949350505050565b600060208284031215610a7957610a78610741565b5b600082013567ffffffffffffffff811115610a9757610a96610746565b5b610aa3848285016108f0565b91505092915050565b600080600060608486031215610ac557610ac4610741565b5b600084013567ffffffffffffffff811115610ae357610ae2610746565b5b610aef868287016108f0565b9350506020610b008682870161076c565b925050604084013567ffffffffffffffff811115610b2157610b20610746565b5b610b2d868287016108f0565b9150509250925092565b7f4e487b7100000000000000000000000000000000000000000000000000000000600052601160045260246000fd5b6000610b718261074b565b91507fffffffffffffffffffffffffffffffffffffffffffffffffffffffffffffffff821415610ba457610ba3610b37565b5b600182019050919050565b7f4e487b7100000000000000000000000000000000000000000000000000000000600052602260045260246000fd5b60006002820490506001821680610bf657607f821691505b60208210811415610c0a57610c09610baf565b5b50919050565b600081905092915050565b6000610c2682610996565b610c308185610c10565b9350610c408185602086016109b2565b80840191505092915050565b6000610c588284610c1b565b915081905092915050565b60006020820190508181036000830152610c7d81846109e5565b905092915050565b600081519050919050565b6000819050602082019050919050565b6000819050919050565b6000610cb68251610ca0565b80915050919050565b600082821b905092915050565b6000610cd782610c85565b82610ce184610c90565b9050610cec81610caa565b92506020821015610d2c57610d277fffffffffffffffffffffffffffffffffffffffffffffffffffffffffffffffff83602003600802610cbf565b831692505b505091905056fea26469706673582212209fd414b26f90f7cc2566bd6f151d3bca8ca7ad14bb915f8af4a24e9ebaa284b764736f6c634300080c0033",
  "immutableReferences": {},
  "source": "// SPDX-License-Identifier: GPL-3.0\n\npragma solidity ^0.8.10;\n// written for Solidity version 0.4.18 and above that doesnt break functionality\n\ncontract Ballot {\n    // an event that is called whenever a Candidate is added so the frontend could\n    // appropriately display the candidate with the right element id (it is used\n    // to vote for the candidate, since it is one of arguments for the function \"vote\")\n    event AddedCandidate(uint candidateID);\n    event AddedEntry(string rid);\n\n    // describes a Voter, which has an id and the ID of the candidate they voted for\n    address owner;\n\n    constructor ()  {\n        owner = msg.sender;\n\n    }\n    modifier onlyOwner {\n       require(msg.sender == owner);\n        _;\n    }\n    struct Voter {\n        bytes32 uid; // bytes32 type are basically strings\n        uint candidateIDVote;\n    }\n    // describes a Candidate\n    struct Candidate {\n        string name;\n        string party;\n        // \"bool doesExist\" is to check if this Struct exists\n        // This is so we can keep track of the candidates \n        bool doesExist;\n    }\n\n    struct Anon {\n        string rid;\n        bool voted;\n    }\n\n    // These state variables are used keep track of the number of Candidates/Voters \n    // and used to as a way to index them     \n    uint numCandidates; // declares a state variable - number Of Candidates\n    uint numVoters;\n\n\n    // Think of these as a hash table, with the key as a uint and value of \n    // the struct Candidate/Voter. These mappings will be used in the majority\n    // of our transactions/calls\n    // These mappings will hold all the candidates and Voters respectively\n    mapping(uint => Candidate) candidates;\n    mapping(uint => Voter) voters;\n    mapping(string => Anon) anony;\n\n    /* * * * * * * * * * * * * * * * * * * * * * * * * * * * * * * *\n     *  These functions perform transactions, editing the mappings *\n     * * * * * * * * * * * * * * * * * * * * * * * * * * * * * * * */\n    // 4da Validations\n    function entry(string memory rid) onlyOwner public {\n        \n        anony[rid] = Anon(rid,false);\n        emit AddedEntry(rid);\n    }\n\n\n    function addCandidate(string memory name, string memory party) onlyOwner public {\n        // candidateID is the return variable\n        uint candidateID = numCandidates++;\n        // Create new Candidate Struct with name and saves it to storage.\n        candidates[candidateID] = Candidate(name,party,true);\n        emit AddedCandidate(candidateID);\n    }\n\n    function vote(string memory uid, uint candidateID, string memory rid) public {\n        // checks if the struct exists for that candidate\n        if (candidates[candidateID].doesExist == true && anony[rid].voted == false) {\n            uint voterID = numVoters++;\n            //voterID is the return variable\n            voters[voterID] = Voter( bytes32(bytes(uid)), candidateID);\n            // set\n            anony[rid].voted = true; \n        }\n    }\n\n    /* * * * * * * * * * * * * * * * * * * * * * * * * * \n     *  Getter Functions *\n     * * * * * * * * * * * * * * * * * * * * * * * * * */\n\n\n    // finds the total amount of votes for a specific candidate by looping\n    // through voters \n    function totalVotes(uint candidateID) view public returns (uint) {\n        uint numOfVotes = 0;\n        // we will return this\n        for (uint i = 0; i < numVoters; i++) {\n            // if the voter votes for this specific candidate, we increment the number\n            if (voters[i].candidateIDVote == candidateID) {\n                numOfVotes++;\n            }\n        }\n        return numOfVotes;\n    }\n\n    function getNumOfCandidates() public view returns (uint) {\n        return numCandidates;\n    }\n\n    function getNumOfVoters() public view returns (uint) {\n        return numVoters;\n    }\n    // returns candidate information, including its ID, name, and party\n    function getCandidate(uint candidateID) public view returns (uint, string memory, string memory) {\n        return (candidateID, candidates[candidateID].name, candidates[candidateID].party);\n    }\n}",
  "sourcePath": "/home/yux/dev/dart/vote/vote/contracts/Ballot.sol",
  "compiler": {
    "name": "solc",
    "version": "0.8.12+commit.f00d7308.Emscripten.clang"
  },
  "schemaVersion": "3.4.3",
  "updatedAt": "2022-02-22T15:21:14.651Z",
  "networkType": "ethereum",
  "devdoc": {
    "kind": "dev",
    "methods": {},
    "version": 1
  },
  "userdoc": {
    "kind": "user",
    "methods": {},
    "version": 1
  }
}