{
  "contractName": "Ballot",
  "abi": [
    {
      "anonymous": false,
      "inputs": [
        {
          "indexed": false,
          "internalType": "uint256",
          "name": "candidateID",
          "type": "uint256"
        }
      ],
      "name": "AddedCandidate",
      "type": "event"
    },
    {
      "inputs": [],
      "name": "Voting",
      "outputs": [],
      "stateMutability": "nonpayable",
      "type": "function"
    },
    {
      "inputs": [
        {
          "internalType": "bytes32",
          "name": "name",
          "type": "bytes32"
        },
        {
          "internalType": "bytes32",
          "name": "party",
          "type": "bytes32"
        }
      ],
      "name": "addCandidate",
      "outputs": [],
      "stateMutability": "nonpayable",
      "type": "function"
    },
    {
      "inputs": [
        {
          "internalType": "bytes32",
          "name": "uid",
          "type": "bytes32"
        },
        {
          "internalType": "uint256",
          "name": "candidateID",
          "type": "uint256"
        }
      ],
      "name": "vote",
      "outputs": [],
      "stateMutability": "nonpayable",
      "type": "function"
    },
    {
      "inputs": [
        {
          "internalType": "uint256",
          "name": "candidateID",
          "type": "uint256"
        }
      ],
      "name": "totalVotes",
      "outputs": [
        {
          "internalType": "uint256",
          "name": "",
          "type": "uint256"
        }
      ],
      "stateMutability": "view",
      "type": "function",
      "constant": true
    },
    {
      "inputs": [],
      "name": "getNumOfCandidates",
      "outputs": [
        {
          "internalType": "uint256",
          "name": "",
          "type": "uint256"
        }
      ],
      "stateMutability": "view",
      "type": "function",
      "constant": true
    },
    {
      "inputs": [],
      "name": "getNumOfVoters",
      "outputs": [
        {
          "internalType": "uint256",
          "name": "",
          "type": "uint256"
        }
      ],
      "stateMutability": "view",
      "type": "function",
      "constant": true
    },
    {
      "inputs": [
        {
          "internalType": "uint256",
          "name": "candidateID",
          "type": "uint256"
        }
      ],
      "name": "getCandidate",
      "outputs": [
        {
          "internalType": "uint256",
          "name": "",
          "type": "uint256"
        },
        {
          "internalType": "bytes32",
          "name": "",
          "type": "bytes32"
        },
        {
          "internalType": "bytes32",
          "name": "",
          "type": "bytes32"
        }
      ],
      "stateMutability": "view",
      "type": "function",
      "constant": true
    }
  ],
  "bytecode": "0x608060405273953dd4b339cefd0995044035cffa7fea416a60e26000806101000a81548173ffffffffffffffffffffffffffffffffffffffff021916908373ffffffffffffffffffffffffffffffffffffffff16021790555034801561006457600080fd5b506105e2806100746000396000f3fe608060405234801561001057600080fd5b506004361061007d5760003560e01c80639ef1204c1161005b5780639ef1204c14610102578063a1adbb251461011e578063b96f8a391461013a578063e8685ba1146101445761007d565b806319e6e1581461008257806335b8e820146100b257806365fc783c146100e4575b600080fd5b61009c600480360381019061009791906103e1565b610162565b6040516100a9919061041d565b60405180910390f35b6100cc60048036038101906100c791906103e1565b6101c0565b6040516100db93929190610451565b60405180910390f35b6100ec610201565b6040516100f9919061041d565b60405180910390f35b61011c600480360381019061011791906104b4565b61020b565b005b610138600480360381019061013391906104f4565b61029b565b005b61014261035a565b005b61014c61039c565b604051610159919061041d565b60405180910390f35b6000806000905060005b6002548110156101b65783600460008381526020019081526020016000206001015414156101a357818061019f90610563565b9250505b80806101ae90610563565b91505061016c565b5080915050919050565b600080600083600360008681526020019081526020016000206000015460036000878152602001908152602001600020600101549250925092509193909250565b6000600254905090565b600115156003600083815260200190815260200160002060020160009054906101000a900460ff16151514156102975760006002600081548092919061025090610563565b919050559050604051806040016040528084815260200183815250600460008381526020019081526020016000206000820151816000015560208201518160010155905050505b5050565b6000600160008154809291906102b090610563565b91905055905060405180606001604052808481526020018381526020016001151581525060036000838152602001908152602001600020600082015181600001556020820151816001015560408201518160020160006101000a81548160ff0219169083151502179055509050507fec542c373a064661ffef02d633752debf28f3e6c9f253680822d9ccf8b47aec68160405161034d919061041d565b60405180910390a1505050565b336000806101000a81548173ffffffffffffffffffffffffffffffffffffffff021916908373ffffffffffffffffffffffffffffffffffffffff160217905550565b6000600154905090565b600080fd5b6000819050919050565b6103be816103ab565b81146103c957600080fd5b50565b6000813590506103db816103b5565b92915050565b6000602082840312156103f7576103f66103a6565b5b6000610405848285016103cc565b91505092915050565b610417816103ab565b82525050565b6000602082019050610432600083018461040e565b92915050565b6000819050919050565b61044b81610438565b82525050565b6000606082019050610466600083018661040e565b6104736020830185610442565b6104806040830184610442565b949350505050565b61049181610438565b811461049c57600080fd5b50565b6000813590506104ae81610488565b92915050565b600080604083850312156104cb576104ca6103a6565b5b60006104d98582860161049f565b92505060206104ea858286016103cc565b9150509250929050565b6000806040838503121561050b5761050a6103a6565b5b60006105198582860161049f565b925050602061052a8582860161049f565b9150509250929050565b7f4e487b7100000000000000000000000000000000000000000000000000000000600052601160045260246000fd5b600061056e826103ab565b91507fffffffffffffffffffffffffffffffffffffffffffffffffffffffffffffffff8214156105a1576105a0610534565b5b60018201905091905056fea2646970667358221220a0ff3a47ea7ecd6b9edd322e308124a9a7ef8969d89bb2a12c2317e8763733db64736f6c634300080a0033",
  "immutableReferences": {},
  "source": "// SPDX-License-Identifier: GPL-3.0\n\npragma solidity ^0.8.10;\n// written for Solidity version 0.4.18 and above that doesnt break functionality\n\ncontract Ballot {\n    // an event that is called whenever a Candidate is added so the frontend could\n    // appropriately display the candidate with the right element id (it is used\n    // to vote for the candidate, since it is one of arguments for the function \"vote\")\n    event AddedCandidate(uint candidateID);\n\n    // describes a Voter, which has an id and the ID of the candidate they voted for\n    address owner = 0x953Dd4B339CEfd0995044035CFfA7FeA416a60e2;\n\n    function Voting() public {\n        owner = msg.sender;\n\n    }\n    //modifier onlyOwner {\n       // require(msg.sender == owner);\n       // _;\n   // }\n    struct Voter {\n        bytes32 uid; // bytes32 type are basically strings\n        uint candidateIDVote;\n    }\n    // describes a Candidate\n    struct Candidate {\n        bytes32 name;\n        bytes32 party;\n        // \"bool doesExist\" is to check if this Struct exists\n        // This is so we can keep track of the candidates \n        bool doesExist;\n    }\n\n    // These state variables are used keep track of the number of Candidates/Voters \n    // and used to as a way to index them     \n    uint numCandidates; // declares a state variable - number Of Candidates\n    uint numVoters;\n\n\n    // Think of these as a hash table, with the key as a uint and value of \n    // the struct Candidate/Voter. These mappings will be used in the majority\n    // of our transactions/calls\n    // These mappings will hold all the candidates and Voters respectively\n    mapping(uint => Candidate) candidates;\n    mapping(uint => Voter) voters;\n\n    /* * * * * * * * * * * * * * * * * * * * * * * * * * * * * * * *\n     *  These functions perform transactions, editing the mappings *\n     * * * * * * * * * * * * * * * * * * * * * * * * * * * * * * * */\n\n    function addCandidate(bytes32 name, bytes32 party)  public {\n        // candidateID is the return variable\n        uint candidateID = numCandidates++;\n        // Create new Candidate Struct with name and saves it to storage.\n        candidates[candidateID] = Candidate(name, party, true);\n        emit AddedCandidate(candidateID);\n    }\n\n    function vote(bytes32 uid, uint candidateID) public {\n        // checks if the struct exists for that candidate\n        if (candidates[candidateID].doesExist == true) {\n            uint voterID = numVoters++;\n            //voterID is the return variable\n            voters[voterID] = Voter(uid, candidateID);\n        }\n    }\n\n    /* * * * * * * * * * * * * * * * * * * * * * * * * * \n     *  Getter Functions, marked by the key word \"view\" *\n     * * * * * * * * * * * * * * * * * * * * * * * * * */\n\n\n    // finds the total amount of votes for a specific candidate by looping\n    // through voters \n    function totalVotes(uint candidateID) view public returns (uint) {\n        uint numOfVotes = 0;\n        // we will return this\n        for (uint i = 0; i < numVoters; i++) {\n            // if the voter votes for this specific candidate, we increment the number\n            if (voters[i].candidateIDVote == candidateID) {\n                numOfVotes++;\n            }\n        }\n        return numOfVotes;\n    }\n\n    function getNumOfCandidates() public view returns (uint) {\n        return numCandidates;\n    }\n\n    function getNumOfVoters() public view returns (uint) {\n        return numVoters;\n    }\n    // returns candidate information, including its ID, name, and party\n    function getCandidate(uint candidateID) public view returns (uint, bytes32, bytes32) {\n        return (candidateID, candidates[candidateID].name, candidates[candidateID].party);\n    }\n}",
  "sourcePath": "/home/yux/dev/dart/vote/contracts/Ballot.sol",
  "compiler": {
    "name": "solc",
    "version": "0.8.10+commit.fc410830.Emscripten.clang"
  },
  "schemaVersion": "3.4.3",
  "updatedAt": "2021-12-11T21:45:41.064Z",
  "networkType": "ethereum",
  "devdoc": {
    "kind": "dev",
    "methods": {},
    "version": 1
  },
  "userdoc": {
    "kind": "user",
    "methods": {},
    "version": 1
  }
}