{
  "contractName": "Ballot",
  "abi": [
    {
      "inputs": [],
      "stateMutability": "nonpayable",
      "type": "constructor"
    },
    {
      "anonymous": false,
      "inputs": [
        {
          "indexed": false,
          "internalType": "uint256",
          "name": "candidateID",
          "type": "uint256"
        }
      ],
      "name": "AddedCandidate",
      "type": "event"
    },
    {
      "anonymous": false,
      "inputs": [
        {
          "indexed": false,
          "internalType": "uint256",
          "name": "id",
          "type": "uint256"
        },
        {
          "indexed": false,
          "internalType": "string",
          "name": "name",
          "type": "string"
        }
      ],
      "name": "AddedCat",
      "type": "event"
    },
    {
      "anonymous": false,
      "inputs": [
        {
          "indexed": false,
          "internalType": "string",
          "name": "rid",
          "type": "string"
        },
        {
          "indexed": false,
          "internalType": "uint256",
          "name": "id",
          "type": "uint256"
        }
      ],
      "name": "AddedEntry",
      "type": "event"
    },
    {
      "anonymous": false,
      "inputs": [
        {
          "indexed": false,
          "internalType": "string",
          "name": "error",
          "type": "string"
        }
      ],
      "name": "Error",
      "type": "event"
    },
    {
      "anonymous": false,
      "inputs": [
        {
          "indexed": false,
          "internalType": "bool",
          "name": "cState",
          "type": "bool"
        }
      ],
      "name": "isCreated",
      "type": "event"
    },
    {
      "anonymous": false,
      "inputs": [
        {
          "indexed": false,
          "internalType": "bool",
          "name": "cState",
          "type": "bool"
        }
      ],
      "name": "isVoting",
      "type": "event"
    },
    {
      "inputs": [],
      "name": "state",
      "outputs": [
        {
          "internalType": "enum Ballot.State",
          "name": "",
          "type": "uint8"
        }
      ],
      "stateMutability": "view",
      "type": "function",
      "constant": true
    },
    {
      "inputs": [
        {
          "internalType": "string",
          "name": "rid",
          "type": "string"
        },
        {
          "internalType": "uint256",
          "name": "id",
          "type": "uint256"
        }
      ],
      "name": "entry",
      "outputs": [],
      "stateMutability": "nonpayable",
      "type": "function"
    },
    {
      "inputs": [],
      "name": "startVoting",
      "outputs": [],
      "stateMutability": "nonpayable",
      "type": "function"
    },
    {
      "inputs": [],
      "name": "stopVoting",
      "outputs": [],
      "stateMutability": "nonpayable",
      "type": "function"
    },
    {
      "inputs": [
        {
          "internalType": "string",
          "name": "name",
          "type": "string"
        },
        {
          "internalType": "string",
          "name": "party",
          "type": "string"
        }
      ],
      "name": "addCandidate",
      "outputs": [],
      "stateMutability": "nonpayable",
      "type": "function"
    },
    {
      "inputs": [
        {
          "internalType": "string",
          "name": "name",
          "type": "string"
        }
      ],
      "name": "addCats",
      "outputs": [],
      "stateMutability": "nonpayable",
      "type": "function"
    },
    {
      "inputs": [
        {
          "internalType": "uint256",
          "name": "candidateID",
          "type": "uint256"
        },
        {
          "internalType": "string",
          "name": "rid",
          "type": "string"
        }
      ],
      "name": "vote",
      "outputs": [],
      "stateMutability": "nonpayable",
      "type": "function"
    },
    {
      "inputs": [
        {
          "internalType": "uint256",
          "name": "candidateID",
          "type": "uint256"
        }
      ],
      "name": "totalVotes",
      "outputs": [
        {
          "internalType": "uint256",
          "name": "",
          "type": "uint256"
        }
      ],
      "stateMutability": "view",
      "type": "function",
      "constant": true
    },
    {
      "inputs": [
        {
          "internalType": "uint256",
          "name": "candidateid",
          "type": "uint256"
        },
        {
          "internalType": "uint256",
          "name": "inputcat",
          "type": "uint256"
        }
      ],
      "name": "advancedVotes",
      "outputs": [
        {
          "internalType": "uint256",
          "name": "",
          "type": "uint256"
        }
      ],
      "stateMutability": "view",
      "type": "function",
      "constant": true
    },
    {
      "inputs": [
        {
          "internalType": "uint256",
          "name": "inputcat",
          "type": "uint256"
        }
      ],
      "name": "specificVotes",
      "outputs": [
        {
          "internalType": "uint256",
          "name": "",
          "type": "uint256"
        }
      ],
      "stateMutability": "view",
      "type": "function",
      "constant": true
    },
    {
      "inputs": [
        {
          "internalType": "uint256",
          "name": "id",
          "type": "uint256"
        }
      ],
      "name": "returnCats",
      "outputs": [
        {
          "internalType": "uint256",
          "name": "",
          "type": "uint256"
        },
        {
          "internalType": "string",
          "name": "",
          "type": "string"
        },
        {
          "internalType": "uint256",
          "name": "",
          "type": "uint256"
        }
      ],
      "stateMutability": "view",
      "type": "function",
      "constant": true
    },
    {
      "inputs": [],
      "name": "returnCatCount",
      "outputs": [
        {
          "internalType": "uint256",
          "name": "",
          "type": "uint256"
        }
      ],
      "stateMutability": "view",
      "type": "function",
      "constant": true
    },
    {
      "inputs": [],
      "name": "getNumOfCandidates",
      "outputs": [
        {
          "internalType": "uint256",
          "name": "",
          "type": "uint256"
        }
      ],
      "stateMutability": "view",
      "type": "function",
      "constant": true
    },
    {
      "inputs": [],
      "name": "getNumOfVoters",
      "outputs": [
        {
          "internalType": "uint256",
          "name": "",
          "type": "uint256"
        }
      ],
      "stateMutability": "view",
      "type": "function",
      "constant": true
    },
    {
      "inputs": [
        {
          "internalType": "uint256",
          "name": "candidateID",
          "type": "uint256"
        }
      ],
      "name": "getCandidate",
      "outputs": [
        {
          "internalType": "uint256",
          "name": "",
          "type": "uint256"
        },
        {
          "internalType": "string",
          "name": "",
          "type": "string"
        },
        {
          "internalType": "string",
          "name": "",
          "type": "string"
        }
      ],
      "stateMutability": "view",
      "type": "function",
      "constant": true
    },
    {
      "inputs": [
        {
          "internalType": "string",
          "name": "rid",
          "type": "string"
        }
      ],
      "name": "returnMappingValue",
      "outputs": [
        {
          "internalType": "bool",
          "name": "",
          "type": "bool"
        }
      ],
      "stateMutability": "view",
      "type": "function",
      "constant": true
    },
    {
      "inputs": [],
      "name": "currentState",
      "outputs": [
        {
          "internalType": "enum Ballot.State",
          "name": "",
          "type": "uint8"
        }
      ],
      "stateMutability": "view",
      "type": "function",
      "constant": true
    }
  ],
  "bytecode": "0x60806040523480156200001157600080fd5b50336000806101000a81548173ffffffffffffffffffffffffffffffffffffffff021916908373ffffffffffffffffffffffffffffffffffffffff1602179055506000600860006101000a81548160ff021916908360028111156200007b576200007a620000fa565b5b02179055507f01890fbcdf362abaa7e4d5d83eb9036ad0f3326ab2dcbcf183a2147aaf50e9bb6001604051620000b2919062000146565b60405180910390a17f8230739840694e52482d047a2e5d5a05c95a1759e32dcb1ae6fd1115ed2cc5086000604051620000ec919062000146565b60405180910390a162000163565b7f4e487b7100000000000000000000000000000000000000000000000000000000600052602160045260246000fd5b60008115159050919050565b620001408162000129565b82525050565b60006020820190506200015d600083018462000135565b92915050565b6117bf80620001736000396000f3fe608060405234801561001057600080fd5b506004361061010b5760003560e01c806374c3d3f6116100a2578063c19d93fb11610071578063c19d93fb146102bc578063c765fd60146102da578063e8685ba11461030a578063f2437ef414610328578063fab2f86b146103445761010b565b806374c3d3f6146102205780637f0316b41461023e57806382d29a971461025a5780638b808a591461028c5761010b565b806324108475116100de578063241084751461019857806326541b56146101b457806335b8e820146101d057806365fc783c146102025761010b565b80630c3f6acf1461011057806319e6e1581461012e5780631ec6b60a1461015e57806323d245c014610168575b600080fd5b61011861034e565b604051610125919061101b565b60405180910390f35b61014860048036038101906101439190611080565b610365565b60405161015591906110bc565b60405180910390f35b6101666103c2565b005b610182600480360381019061017d9190611080565b6104c1565b60405161018f91906110bc565b60405180910390f35b6101b260048036038101906101ad919061121d565b61051e565b005b6101ce60048036038101906101c99190611279565b6106f7565b005b6101ea60048036038101906101e59190611080565b610876565b6040516101f993929190611379565b60405180910390f35b61020a6109cd565b60405161021791906110bc565b60405180910390f35b6102286109d7565b60405161023591906110bc565b60405180910390f35b610258600480360381019061025391906113be565b6109e1565b005b610274600480360381019061026f9190611080565b610b26565b60405161028393929190611407565b60405180910390f35b6102a660048036038101906102a19190611445565b610bf3565b6040516102b391906110bc565b60405180910390f35b6102c4610c73565b6040516102d1919061101b565b60405180910390f35b6102f460048036038101906102ef91906113be565b610c86565b60405161030191906114a0565b60405180910390f35b610312610cbe565b60405161031f91906110bc565b60405180910390f35b610342600480360381019061033d91906114bb565b610cc8565b005b61034c610e02565b005b6000600860009054906101000a900460ff16905090565b6000806000905060005b6002548110156103b857836005600083815260200190815260200160002060000154036103a55781806103a190611546565b9250505b80806103b090611546565b91505061036f565b5080915050919050565b60008054906101000a900473ffffffffffffffffffffffffffffffffffffffff1673ffffffffffffffffffffffffffffffffffffffff163373ffffffffffffffffffffffffffffffffffffffff161461041a57600080fd5b600080600281111561042f5761042e610fa4565b5b600860009054906101000a900460ff16600281111561045157610450610fa4565b5b1461045b57600080fd5b6001600860006101000a81548160ff0219169083600281111561048157610480610fa4565b5b02179055507f8230739840694e52482d047a2e5d5a05c95a1759e32dcb1ae6fd1115ed2cc50860016040516104b691906114a0565b60405180910390a150565b6000806000905060005b60025481101561051457836005600083815260200190815260200160002060010154036105015781806104fd90611546565b9250505b808061050c90611546565b9150506104cb565b5080915050919050565b600180600281111561053357610532610fa4565b5b600860009054906101000a900460ff16600281111561055557610554610fa4565b5b1461055f57600080fd5b600115156004600085815260200190815260200160002060020160009054906101000a900460ff1615151480156105c85750600015156006836040516105a591906115ca565b908152602001604051809103902060000160009054906101000a900460ff161515145b156106bc576000600260008154809291906105e290611546565b91905055905060006006846040516105fa91906115ca565b9081526020016040518091039020600101549050604051806040016040528086815260200182815250600560008481526020019081526020016000206000820151816000015560208201518160010155905050600160076000838152602001908152602001600020600101600082825461067491906115e1565b92505081905550600160068560405161068d91906115ca565b908152602001604051809103902060000160006101000a81548160ff02191690831515021790555050506106f2565b7f08c379a0afcc32b1a39302f7cb8073359698411ab5fd6e3edb2c02c0b5fba8aa6040516106e9906116a9565b60405180910390a15b505050565b60008054906101000a900473ffffffffffffffffffffffffffffffffffffffff1673ffffffffffffffffffffffffffffffffffffffff163373ffffffffffffffffffffffffffffffffffffffff161461074f57600080fd5b600080600281111561076457610763610fa4565b5b600860009054906101000a900460ff16600281111561078657610785610fa4565b5b1461079057600080fd5b6000600160008154809291906107a590611546565b9190505590506040518060600160405280858152602001848152602001600115158152506004600083815260200190815260200160002060008201518160000190805190602001906107f8929190610f01565b506020820151816001019080519060200190610815929190610f01565b5060408201518160020160006101000a81548160ff0219169083151502179055509050507fec542c373a064661ffef02d633752debf28f3e6c9f253680822d9ccf8b47aec68160405161086891906110bc565b60405180910390a150505050565b60006060808360046000868152602001908152602001600020600001600460008781526020019081526020016000206001018180546108b4906116f8565b80601f01602080910402602001604051908101604052809291908181526020018280546108e0906116f8565b801561092d5780601f106109025761010080835404028352916020019161092d565b820191906000526020600020905b81548152906001019060200180831161091057829003601f168201915b50505050509150808054610940906116f8565b80601f016020809104026020016040519081016040528092919081815260200182805461096c906116f8565b80156109b95780601f1061098e576101008083540402835291602001916109b9565b820191906000526020600020905b81548152906001019060200180831161099c57829003601f168201915b505050505090509250925092509193909250565b6000600254905090565b6000600354905090565b60008054906101000a900473ffffffffffffffffffffffffffffffffffffffff1673ffffffffffffffffffffffffffffffffffffffff163373ffffffffffffffffffffffffffffffffffffffff1614610a3957600080fd5b6000806002811115610a4e57610a4d610fa4565b5b600860009054906101000a900460ff166002811115610a7057610a6f610fa4565b5b14610a7a57600080fd5b600060036000815480929190610a8f90611546565b91905055905060405180604001604052808481526020016000815250600760008381526020019081526020016000206000820151816000019080519060200190610ada929190610f01565b50602082015181600101559050507f7ef9fec64222829a95199f2cbc8c191bdc98c0b9e492f2cd6ddc162582c6ddd58184604051610b19929190611729565b60405180910390a1505050565b60006060600083600760008681526020019081526020016000206000016007600087815260200190815260200160002060010154818054610b66906116f8565b80601f0160208091040260200160405190810160405280929190818152602001828054610b92906116f8565b8015610bdf5780601f10610bb457610100808354040283529160200191610bdf565b820191906000526020600020905b815481529060010190602001808311610bc257829003601f168201915b505050505091509250925092509193909250565b6000806000905060005b600254811015610c6857846005600083815260200190815260200160002060000154148015610c415750836005600083815260200190815260200160002060010154145b15610c55578180610c5190611546565b9250505b8080610c6090611546565b915050610bfd565b508091505092915050565b600860009054906101000a900460ff1681565b6000600682604051610c9891906115ca565b908152602001604051809103902060000160009054906101000a900460ff169050919050565b6000600154905090565b60008054906101000a900473ffffffffffffffffffffffffffffffffffffffff1673ffffffffffffffffffffffffffffffffffffffff163373ffffffffffffffffffffffffffffffffffffffff1614610d2057600080fd5b6000806002811115610d3557610d34610fa4565b5b600860009054906101000a900460ff166002811115610d5757610d56610fa4565b5b14610d6157600080fd5b604051806040016040528060001515815260200183815250600684604051610d8991906115ca565b908152602001604051809103902060008201518160000160006101000a81548160ff021916908315150217905550602082015181600101559050507f5974df95c081c9fd596f932673fe8551ab54bfc5a28b4239455e9c414225340d8383604051610df5929190611759565b60405180910390a1505050565b60008054906101000a900473ffffffffffffffffffffffffffffffffffffffff1673ffffffffffffffffffffffffffffffffffffffff163373ffffffffffffffffffffffffffffffffffffffff1614610e5a57600080fd5b6001806002811115610e6f57610e6e610fa4565b5b600860009054906101000a900460ff166002811115610e9157610e90610fa4565b5b14610e9b57600080fd5b6002600860006101000a81548160ff02191690836002811115610ec157610ec0610fa4565b5b02179055507f8230739840694e52482d047a2e5d5a05c95a1759e32dcb1ae6fd1115ed2cc5086000604051610ef691906114a0565b60405180910390a150565b828054610f0d906116f8565b90600052602060002090601f016020900481019282610f2f5760008555610f76565b82601f10610f4857805160ff1916838001178555610f76565b82800160010185558215610f76579182015b82811115610f75578251825591602001919060010190610f5a565b5b509050610f839190610f87565b5090565b5b80821115610fa0576000816000905550600101610f88565b5090565b7f4e487b7100000000000000000000000000000000000000000000000000000000600052602160045260246000fd5b60038110610fe457610fe3610fa4565b5b50565b6000819050610ff582610fd3565b919050565b600061100582610fe7565b9050919050565b61101581610ffa565b82525050565b6000602082019050611030600083018461100c565b92915050565b6000604051905090565b600080fd5b600080fd5b6000819050919050565b61105d8161104a565b811461106857600080fd5b50565b60008135905061107a81611054565b92915050565b60006020828403121561109657611095611040565b5b60006110a48482850161106b565b91505092915050565b6110b68161104a565b82525050565b60006020820190506110d160008301846110ad565b92915050565b600080fd5b600080fd5b6000601f19601f8301169050919050565b7f4e487b7100000000000000000000000000000000000000000000000000000000600052604160045260246000fd5b61112a826110e1565b810181811067ffffffffffffffff82111715611149576111486110f2565b5b80604052505050565b600061115c611036565b90506111688282611121565b919050565b600067ffffffffffffffff821115611188576111876110f2565b5b611191826110e1565b9050602081019050919050565b82818337600083830152505050565b60006111c06111bb8461116d565b611152565b9050828152602081018484840111156111dc576111db6110dc565b5b6111e784828561119e565b509392505050565b600082601f830112611204576112036110d7565b5b81356112148482602086016111ad565b91505092915050565b6000806040838503121561123457611233611040565b5b60006112428582860161106b565b925050602083013567ffffffffffffffff81111561126357611262611045565b5b61126f858286016111ef565b9150509250929050565b600080604083850312156112905761128f611040565b5b600083013567ffffffffffffffff8111156112ae576112ad611045565b5b6112ba858286016111ef565b925050602083013567ffffffffffffffff8111156112db576112da611045565b5b6112e7858286016111ef565b9150509250929050565b600081519050919050565b600082825260208201905092915050565b60005b8381101561132b578082015181840152602081019050611310565b8381111561133a576000848401525b50505050565b600061134b826112f1565b61135581856112fc565b935061136581856020860161130d565b61136e816110e1565b840191505092915050565b600060608201905061138e60008301866110ad565b81810360208301526113a08185611340565b905081810360408301526113b48184611340565b9050949350505050565b6000602082840312156113d4576113d3611040565b5b600082013567ffffffffffffffff8111156113f2576113f1611045565b5b6113fe848285016111ef565b91505092915050565b600060608201905061141c60008301866110ad565b818103602083015261142e8185611340565b905061143d60408301846110ad565b949350505050565b6000806040838503121561145c5761145b611040565b5b600061146a8582860161106b565b925050602061147b8582860161106b565b9150509250929050565b60008115159050919050565b61149a81611485565b82525050565b60006020820190506114b56000830184611491565b92915050565b600080604083850312156114d2576114d1611040565b5b600083013567ffffffffffffffff8111156114f0576114ef611045565b5b6114fc858286016111ef565b925050602061150d8582860161106b565b9150509250929050565b7f4e487b7100000000000000000000000000000000000000000000000000000000600052601160045260246000fd5b60006115518261104a565b91507fffffffffffffffffffffffffffffffffffffffffffffffffffffffffffffffff820361158357611582611517565b5b600182019050919050565b600081905092915050565b60006115a4826112f1565b6115ae818561158e565b93506115be81856020860161130d565b80840191505092915050565b60006115d68284611599565b915081905092915050565b60006115ec8261104a565b91506115f78361104a565b9250827fffffffffffffffffffffffffffffffffffffffffffffffffffffffffffffffff0382111561162c5761162b611517565b5b828201905092915050565b7f766f74696e67206661696c6564203a20496e76616c69642043616e646964617460008201527f65202f20566f7465720000000000000000000000000000000000000000000000602082015250565b60006116936029836112fc565b915061169e82611637565b604082019050919050565b600060208201905081810360008301526116c281611686565b9050919050565b7f4e487b7100000000000000000000000000000000000000000000000000000000600052602260045260246000fd5b6000600282049050600182168061171057607f821691505b602082108103611723576117226116c9565b5b50919050565b600060408201905061173e60008301856110ad565b81810360208301526117508184611340565b90509392505050565b600060408201905081810360008301526117738185611340565b905061178260208301846110ad565b939250505056fea26469706673582212208d69f3a0fe0a0446e7b85e520230543b35728a69a51e6441c789715216d4d56264736f6c634300080d0033",
  "immutableReferences": {},
  "source": "// SPDX-License-Identifier: GPL-3.0\n\npragma solidity ^0.8.13;\n// written for Solidity version 0.4.18 and above that doesnt break functionality\n\ncontract Ballot {\n    // Events\n    event AddedCandidate(uint candidateID);\n    event AddedEntry(string rid, uint id);\n    event Error(string error);\n\n    // States Events\n    event isCreated(bool cState);\n    event isVoting(bool cState);\n\n    event AddedCat(uint id, string name);\n\n    // describes a Voter, which has an id and the ID of the candidate they voted for\n    address owner;\n\n    constructor ()  {\n        owner = msg.sender;\n        state = State.Created;\n        emit isCreated(true);\n        emit isVoting(false);\n    }\n\n    // modifiers\n    modifier onlyOwner {\n        require(msg.sender == owner);\n        _;\n    }\n\n    modifier inState(State _state) {\n        require((state == _state));\n        _;\n    }\n    struct Voter {\n        uint candidateIDVote;\n        uint catid;\n    }\n\n\n    // describes a Candidate\n    struct Candidate {\n        string name;\n        string party;\n        // \"bool doesExist\" is to check if this Struct exists\n        // This is so we can keep track of the candidates \n        bool doesExist;\n    }\n\n    // Categories\n    struct Cats {\n        string name;\n        uint count;\n    }\n\n    // structfor vals\n    struct Anon {\n        bool voted;\n        uint id;\n    }\n\n\n    // These state variables are used keep track of the number of Candidates/Voters \n    // and used to as a way to index them     \n    uint numCandidates; // declares a state variable - number Of Candidates\n    uint numVoters;\n    uint numCats;\n\n\n    // Think of these as a hash table, with the key as a uint and value of \n    // the struct Candidate/Voter. These mappings will be used in the majority\n    // of our transactions/calls\n    // These mappings will hold all the candidates and Voters respectively\n    mapping(uint => Candidate) candidates;\n    mapping(uint => Voter) voters;\n    mapping(string => Anon) anony;\n    mapping(uint => Cats) cats;\n\n    // States\n    enum State {Created, Voting, Ended}\n    State public state;\n\n\n    /* * * * * * * * * * * * * * * * * * * * * * * * * * * * * * * *\n     *  These functions perform transactions, editing the mappings *\n     * * * * * * * * * * * * * * * * * * * * * * * * * * * * * * * */\n\n    // 4da Validations / entry of category id\n    function entry(string memory rid, uint id) onlyOwner public\n    inState(State.Created)\n    {\n\n        anony[rid] = Anon(false, id);\n        emit AddedEntry(rid, id);\n    }\n\n    // state init for voting\n    function startVoting() onlyOwner public\n    inState(State.Created)\n    {\n        state = State.Voting;\n        emit isVoting(true);\n    }\n\n    // stop voting\n    function stopVoting() onlyOwner public\n    inState(State.Voting)\n    {\n        state = State.Ended;\n        emit isVoting(false);\n    }\n\n\n    function addCandidate(string memory name, string memory party) onlyOwner public\n    inState(State.Created)\n    {\n        // candidateID is the return variable\n        uint candidateID = numCandidates++;\n        // Create new Candidate Struct with name and saves it to storage.\n        candidates[candidateID] = Candidate(name, party, true);\n        emit AddedCandidate(candidateID);\n    }\n\n    function addCats(string memory name)\n    onlyOwner\n    public\n    inState(State.Created)\n    {\n        uint id = numCats++;\n        cats[id] = Cats(name, 0);\n        emit AddedCat(id, name);\n\n    }\n\n    function vote(uint candidateID, string memory rid) public\n    inState(State.Voting)\n    {\n        // checks if the struct exists for that candidate\n        if (candidates[candidateID].doesExist == true && anony[rid].voted == false) {\n            uint voterID = numVoters++;\n            uint id = anony[rid].id;\n\n            //voterID is the return variable\n            voters[voterID] = Voter(candidateID, id);\n            // increment cats\n            cats[id].count += 1;\n\n            // setter voter voted\n            anony[rid].voted = true;\n        }\n        else {\n            emit Error(\"voting failed : Invalid Candidate / Voter\");\n        }\n    }\n\n    /* * * * * * * * * * * * * * * * * * * * * * * * * * \n     *  Getter Functions *\n     * * * * * * * * * * * * * * * * * * * * * * * * * */\n\n\n    // finds the total amount of votes for a specific candidate by looping\n    // through voters \n    function totalVotes(uint candidateID) view public returns (uint) {\n        uint numOfVotes = 0;\n        // we will return this\n        for (uint i = 0; i < numVoters; i++) {\n            // if the voter votes for this specific candidate, we increment the number\n            if (voters[i].candidateIDVote == candidateID) {\n                numOfVotes++;\n            }\n        }\n        return numOfVotes;\n    }\n\n    function advancedVotes(uint candidateid, uint inputcat) view public returns (uint) {\n        uint numVotes = 0;\n        for (uint i = 0; i < numVoters; i++) {\n            if (voters[i].candidateIDVote == candidateid && voters[i].catid == inputcat) {\n                numVotes++;\n            }\n        }\n        return numVotes;\n\n    }\n\n    // voters by cat\n    function specificVotes(uint inputcat) view public returns (uint) {\n        uint numVotes = 0;\n        for (uint i = 0; i < numVoters; i++) {\n            if (voters[i].catid == inputcat) {\n                numVotes++;\n            }\n        }\n        return numVotes;\n\n    }\n\n    // Return Cat Details\n    function returnCats(uint id) public view returns (uint, string memory, uint) {\n        return (id, cats[id].name, cats[id].count);\n    }\n\n    // return cats count\n    function returnCatCount()\n    public\n    view\n    returns\n    (uint)\n    {\n        return numCats;\n\n    }\n\n    function getNumOfCandidates() public view returns (uint) {\n        return numCandidates;\n    }\n\n    function getNumOfVoters() public view returns (uint) {\n        return numVoters;\n    }\n    // returns candidate information, including its ID, name, and party\n    function getCandidate(uint candidateID) public view returns (uint, string memory, string memory) {\n        return (candidateID, candidates[candidateID].name, candidates[candidateID].party);\n    }\n\n    function returnMappingValue(string memory rid) public view returns (bool) {\n        return (anony[rid].voted);\n    }\n\n    function currentState() public view returns (State) {\n        return state;\n    }\n}",
  "sourcePath": "/home/yux/dev/dart/vote/votedepartment/contracts/Ballot.sol",
  "compiler": {
    "name": "solc",
    "version": "0.8.13+commit.abaa5c0e.Emscripten.clang"
  },
  "schemaVersion": "3.4.6",
  "updatedAt": "2022-04-03T19:30:35.021Z",
  "networkType": "ethereum",
  "devdoc": {
    "kind": "dev",
    "methods": {},
    "version": 1
  },
  "userdoc": {
    "kind": "user",
    "methods": {},
    "version": 1
  }
}