{
  "contractName": "Ballot",
  "abi": [
    {
      "inputs": [],
      "stateMutability": "nonpayable",
      "type": "constructor"
    },
    {
      "anonymous": false,
      "inputs": [
        {
          "indexed": false,
          "internalType": "uint256",
          "name": "candidateID",
          "type": "uint256"
        }
      ],
      "name": "AddedCandidate",
      "type": "event"
    },
    {
      "anonymous": false,
      "inputs": [
        {
          "indexed": false,
          "internalType": "uint256",
          "name": "id",
          "type": "uint256"
        },
        {
          "indexed": false,
          "internalType": "string",
          "name": "name",
          "type": "string"
        }
      ],
      "name": "AddedCat",
      "type": "event"
    },
    {
      "anonymous": false,
      "inputs": [
        {
          "indexed": false,
          "internalType": "string",
          "name": "rid",
          "type": "string"
        },
        {
          "indexed": false,
          "internalType": "uint256",
          "name": "id",
          "type": "uint256"
        }
      ],
      "name": "AddedEntry",
      "type": "event"
    },
    {
      "anonymous": false,
      "inputs": [
        {
          "indexed": false,
          "internalType": "string",
          "name": "error",
          "type": "string"
        }
      ],
      "name": "Error",
      "type": "event"
    },
    {
      "anonymous": false,
      "inputs": [
        {
          "indexed": false,
          "internalType": "bool",
          "name": "cState",
          "type": "bool"
        }
      ],
      "name": "isCreated",
      "type": "event"
    },
    {
      "anonymous": false,
      "inputs": [
        {
          "indexed": false,
          "internalType": "bool",
          "name": "cState",
          "type": "bool"
        }
      ],
      "name": "isVoting",
      "type": "event"
    },
    {
      "inputs": [],
      "name": "state",
      "outputs": [
        {
          "internalType": "enum Ballot.State",
          "name": "",
          "type": "uint8"
        }
      ],
      "stateMutability": "view",
      "type": "function",
      "constant": true
    },
    {
      "inputs": [
        {
          "internalType": "string",
          "name": "rid",
          "type": "string"
        },
        {
          "internalType": "uint256",
          "name": "id",
          "type": "uint256"
        }
      ],
      "name": "entry",
      "outputs": [],
      "stateMutability": "nonpayable",
      "type": "function"
    },
    {
      "inputs": [],
      "name": "startVoting",
      "outputs": [],
      "stateMutability": "nonpayable",
      "type": "function"
    },
    {
      "inputs": [],
      "name": "stopVoting",
      "outputs": [],
      "stateMutability": "nonpayable",
      "type": "function"
    },
    {
      "inputs": [
        {
          "internalType": "string",
          "name": "name",
          "type": "string"
        },
        {
          "internalType": "string",
          "name": "party",
          "type": "string"
        }
      ],
      "name": "addCandidate",
      "outputs": [],
      "stateMutability": "nonpayable",
      "type": "function"
    },
    {
      "inputs": [
        {
          "internalType": "string",
          "name": "name",
          "type": "string"
        }
      ],
      "name": "addCats",
      "outputs": [],
      "stateMutability": "nonpayable",
      "type": "function"
    },
    {
      "inputs": [
        {
          "internalType": "uint256",
          "name": "candidateID",
          "type": "uint256"
        },
        {
          "internalType": "string",
          "name": "rid",
          "type": "string"
        }
      ],
      "name": "vote",
      "outputs": [],
      "stateMutability": "nonpayable",
      "type": "function"
    },
    {
      "inputs": [
        {
          "internalType": "uint256",
          "name": "candidateID",
          "type": "uint256"
        }
      ],
      "name": "totalVotes",
      "outputs": [
        {
          "internalType": "uint256",
          "name": "",
          "type": "uint256"
        }
      ],
      "stateMutability": "view",
      "type": "function",
      "constant": true
    },
    {
      "inputs": [
        {
          "internalType": "uint256",
          "name": "candidateID",
          "type": "uint256"
        }
      ],
      "name": "voteswithId",
      "outputs": [
        {
          "internalType": "string",
          "name": "",
          "type": "string"
        },
        {
          "internalType": "uint256",
          "name": "",
          "type": "uint256"
        }
      ],
      "stateMutability": "view",
      "type": "function",
      "constant": true
    },
    {
      "inputs": [
        {
          "internalType": "uint256",
          "name": "candidateid",
          "type": "uint256"
        },
        {
          "internalType": "uint256",
          "name": "inputcat",
          "type": "uint256"
        }
      ],
      "name": "advancedVotes",
      "outputs": [
        {
          "internalType": "string",
          "name": "",
          "type": "string"
        },
        {
          "internalType": "uint256",
          "name": "",
          "type": "uint256"
        }
      ],
      "stateMutability": "view",
      "type": "function",
      "constant": true
    },
    {
      "inputs": [
        {
          "internalType": "uint256",
          "name": "candidateID",
          "type": "uint256"
        }
      ],
      "name": "getCandidateData",
      "outputs": [
        {
          "internalType": "uint256",
          "name": "",
          "type": "uint256"
        },
        {
          "internalType": "string",
          "name": "",
          "type": "string"
        },
        {
          "internalType": "string",
          "name": "",
          "type": "string"
        },
        {
          "internalType": "uint256",
          "name": "",
          "type": "uint256"
        }
      ],
      "stateMutability": "view",
      "type": "function",
      "constant": true
    },
    {
      "inputs": [
        {
          "internalType": "uint256",
          "name": "id",
          "type": "uint256"
        }
      ],
      "name": "votesbycat",
      "outputs": [
        {
          "internalType": "string",
          "name": "",
          "type": "string"
        },
        {
          "internalType": "uint256",
          "name": "",
          "type": "uint256"
        }
      ],
      "stateMutability": "view",
      "type": "function",
      "constant": true
    },
    {
      "inputs": [
        {
          "internalType": "uint256",
          "name": "id",
          "type": "uint256"
        }
      ],
      "name": "returnCats",
      "outputs": [
        {
          "internalType": "uint256",
          "name": "",
          "type": "uint256"
        },
        {
          "internalType": "string",
          "name": "",
          "type": "string"
        },
        {
          "internalType": "uint256",
          "name": "",
          "type": "uint256"
        }
      ],
      "stateMutability": "view",
      "type": "function",
      "constant": true
    },
    {
      "inputs": [],
      "name": "returnCatCount",
      "outputs": [
        {
          "internalType": "uint256",
          "name": "",
          "type": "uint256"
        }
      ],
      "stateMutability": "view",
      "type": "function",
      "constant": true
    },
    {
      "inputs": [],
      "name": "getNumOfCandidates",
      "outputs": [
        {
          "internalType": "uint256",
          "name": "",
          "type": "uint256"
        }
      ],
      "stateMutability": "view",
      "type": "function",
      "constant": true
    },
    {
      "inputs": [],
      "name": "getNumOfVoters",
      "outputs": [
        {
          "internalType": "uint256",
          "name": "",
          "type": "uint256"
        }
      ],
      "stateMutability": "view",
      "type": "function",
      "constant": true
    },
    {
      "inputs": [
        {
          "internalType": "uint256",
          "name": "candidateID",
          "type": "uint256"
        }
      ],
      "name": "getCandidate",
      "outputs": [
        {
          "internalType": "uint256",
          "name": "",
          "type": "uint256"
        },
        {
          "internalType": "string",
          "name": "",
          "type": "string"
        },
        {
          "internalType": "string",
          "name": "",
          "type": "string"
        }
      ],
      "stateMutability": "view",
      "type": "function",
      "constant": true
    },
    {
      "inputs": [
        {
          "internalType": "string",
          "name": "rid",
          "type": "string"
        }
      ],
      "name": "returnMappingValue",
      "outputs": [
        {
          "internalType": "bool",
          "name": "",
          "type": "bool"
        }
      ],
      "stateMutability": "view",
      "type": "function",
      "constant": true
    },
    {
      "inputs": [],
      "name": "currentState",
      "outputs": [
        {
          "internalType": "enum Ballot.State",
          "name": "",
          "type": "uint8"
        }
      ],
      "stateMutability": "view",
      "type": "function",
      "constant": true
    }
  ],
  "bytecode": "0x60806040523480156200001157600080fd5b50336000806101000a81548173ffffffffffffffffffffffffffffffffffffffff021916908373ffffffffffffffffffffffffffffffffffffffff1602179055506000600860006101000a81548160ff021916908360028111156200007b576200007a620000fa565b5b02179055507f01890fbcdf362abaa7e4d5d83eb9036ad0f3326ab2dcbcf183a2147aaf50e9bb6001604051620000b2919062000146565b60405180910390a17f8230739840694e52482d047a2e5d5a05c95a1759e32dcb1ae6fd1115ed2cc5086000604051620000ec919062000146565b60405180910390a162000163565b7f4e487b7100000000000000000000000000000000000000000000000000000000600052602160045260246000fd5b60008115159050919050565b620001408162000129565b82525050565b60006020820190506200015d600083018462000135565b92915050565b611e7a80620001736000396000f3fe608060405234801561001057600080fd5b50600436106101215760003560e01c806382d29a97116100ad578063dde1ea0111610071578063dde1ea0114610324578063e8685ba114610355578063f2437ef414610373578063fab2f86b1461038f578063fc51b6f81461039957610121565b806382d29a97146102405780638b808a5914610272578063bca50c4d146102a3578063c19d93fb146102d6578063c765fd60146102f457610121565b806326541b56116100f457806326541b561461019a57806335b8e820146101b657806365fc783c146101e857806374c3d3f6146102065780637f0316b41461022457610121565b80630c3f6acf1461012657806319e6e158146101445780631ec6b60a14610174578063241084751461017e575b600080fd5b61012e6103ca565b60405161013b919061153f565b60405180910390f35b61015e600480360381019061015991906115a4565b6103e1565b60405161016b91906115e0565b60405180910390f35b61017c61043e565b005b61019860048036038101906101939190611741565b61053d565b005b6101b460048036038101906101af919061179d565b610716565b005b6101d060048036038101906101cb91906115a4565b6108c9565b6040516101df9392919061189d565b60405180910390f35b6101f0610a20565b6040516101fd91906115e0565b60405180910390f35b61020e610a2a565b60405161021b91906115e0565b60405180910390f35b61023e600480360381019061023991906118e2565b610a34565b005b61025a600480360381019061025591906115a4565b610bad565b6040516102699392919061192b565b60405180910390f35b61028c60048036038101906102879190611969565b610c7a565b60405161029a9291906119a9565b60405180910390f35b6102bd60048036038101906102b891906115a4565b610da4565b6040516102cd94939291906119d9565b60405180910390f35b6102de610f58565b6040516102eb919061153f565b60405180910390f35b61030e600480360381019061030991906118e2565b610f6b565b60405161031b9190611a47565b60405180910390f35b61033e600480360381019061033991906115a4565b610fa3565b60405161034c9291906119a9565b60405180910390f35b61035d6110a9565b60405161036a91906115e0565b60405180910390f35b61038d60048036038101906103889190611a62565b6110b3565b005b610397611260565b005b6103b360048036038101906103ae91906115a4565b61135f565b6040516103c19291906119a9565b60405180910390f35b6000600860009054906101000a900460ff16905090565b6000806000905060005b600254811015610434578360056000838152602001908152602001600020600001540361042157818061041d90611aed565b9250505b808061042c90611aed565b9150506103eb565b5080915050919050565b60008054906101000a900473ffffffffffffffffffffffffffffffffffffffff1673ffffffffffffffffffffffffffffffffffffffff163373ffffffffffffffffffffffffffffffffffffffff161461049657600080fd5b60008060028111156104ab576104aa6114c8565b5b600860009054906101000a900460ff1660028111156104cd576104cc6114c8565b5b146104d757600080fd5b6001600860006101000a81548160ff021916908360028111156104fd576104fc6114c8565b5b02179055507f8230739840694e52482d047a2e5d5a05c95a1759e32dcb1ae6fd1115ed2cc50860016040516105329190611a47565b60405180910390a150565b6001806002811115610552576105516114c8565b5b600860009054906101000a900460ff166002811115610574576105736114c8565b5b1461057e57600080fd5b600115156004600085815260200190815260200160002060020160009054906101000a900460ff1615151480156105e75750600015156006836040516105c49190611b71565b908152602001604051809103902060000160009054906101000a900460ff161515145b156106db5760006002600081548092919061060190611aed565b91905055905060006006846040516106199190611b71565b908152602001604051809103902060010154905060405180604001604052808681526020018281525060056000848152602001908152602001600020600082015181600001556020820151816001015590505060016007600083815260200190815260200160002060010160008282546106939190611b88565b9250508190555060016006856040516106ac9190611b71565b908152602001604051809103902060000160006101000a81548160ff0219169083151502179055505050610711565b7f08c379a0afcc32b1a39302f7cb8073359698411ab5fd6e3edb2c02c0b5fba8aa60405161070890611c50565b60405180910390a15b505050565b60008054906101000a900473ffffffffffffffffffffffffffffffffffffffff1673ffffffffffffffffffffffffffffffffffffffff163373ffffffffffffffffffffffffffffffffffffffff161461076e57600080fd5b60006002811115610782576107816114c8565b5b600860009054906101000a900460ff1660028111156107a4576107a36114c8565b5b0361088f576000600160008154809291906107be90611aed565b919050559050604051806060016040528084815260200183815260200160011515815250600460008381526020019081526020016000206000820151816000019080519060200190610811929190611425565b50602082015181600101908051906020019061082e929190611425565b5060408201518160020160006101000a81548160ff0219169083151502179055509050507fec542c373a064661ffef02d633752debf28f3e6c9f253680822d9ccf8b47aec68160405161088191906115e0565b60405180910390a1506108c5565b7f08c379a0afcc32b1a39302f7cb8073359698411ab5fd6e3edb2c02c0b5fba8aa6040516108bc90611cbc565b60405180910390a15b5050565b600060608083600460008681526020019081526020016000206000016004600087815260200190815260200160002060010181805461090790611d0b565b80601f016020809104026020016040519081016040528092919081815260200182805461093390611d0b565b80156109805780601f1061095557610100808354040283529160200191610980565b820191906000526020600020905b81548152906001019060200180831161096357829003601f168201915b5050505050915080805461099390611d0b565b80601f01602080910402602001604051908101604052809291908181526020018280546109bf90611d0b565b8015610a0c5780601f106109e157610100808354040283529160200191610a0c565b820191906000526020600020905b8154815290600101906020018083116109ef57829003601f168201915b505050505090509250925092509193909250565b6000600254905090565b6000600354905090565b60008054906101000a900473ffffffffffffffffffffffffffffffffffffffff1673ffffffffffffffffffffffffffffffffffffffff163373ffffffffffffffffffffffffffffffffffffffff1614610a8c57600080fd5b60006002811115610aa057610a9f6114c8565b5b600860009054906101000a900460ff166002811115610ac257610ac16114c8565b5b03610b7457600060036000815480929190610adc90611aed565b91905055905060405180604001604052808381526020016000815250600760008381526020019081526020016000206000820151816000019080519060200190610b27929190611425565b50602082015181600101559050507f7ef9fec64222829a95199f2cbc8c191bdc98c0b9e492f2cd6ddc162582c6ddd58183604051610b66929190611d3c565b60405180910390a150610baa565b7f08c379a0afcc32b1a39302f7cb8073359698411ab5fd6e3edb2c02c0b5fba8aa604051610ba190611db8565b60405180910390a15b50565b60006060600083600760008681526020019081526020016000206000016007600087815260200190815260200160002060010154818054610bed90611d0b565b80601f0160208091040260200160405190810160405280929190818152602001828054610c1990611d0b565b8015610c665780601f10610c3b57610100808354040283529160200191610c66565b820191906000526020600020905b815481529060010190602001808311610c4957829003601f168201915b505050505091509250925092509193909250565b606060008060009050606060005b600254811015610d9457866005600083815260200190815260200160002060000154148015610ccc5750856005600083815260200190815260200160002060010154145b15610d81578280610cdc90611aed565b935050600760008781526020019081526020016000206000018054610d0090611d0b565b80601f0160208091040260200160405190810160405280929190818152602001828054610d2c90611d0b565b8015610d795780601f10610d4e57610100808354040283529160200191610d79565b820191906000526020600020905b815481529060010190602001808311610d5c57829003601f168201915b505050505091505b8080610d8c90611aed565b915050610c88565b5080829350935050509250929050565b60006060806000806000905060608060005b600254811015610f415788600560008381526020019081526020016000206000015403610f2e578380610de890611aed565b945050600460008a81526020019081526020016000206000018054610e0c90611d0b565b80601f0160208091040260200160405190810160405280929190818152602001828054610e3890611d0b565b8015610e855780601f10610e5a57610100808354040283529160200191610e85565b820191906000526020600020905b815481529060010190602001808311610e6857829003601f168201915b50505050509250600460008a81526020019081526020016000206001018054610ead90611d0b565b80601f0160208091040260200160405190810160405280929190818152602001828054610ed990611d0b565b8015610f265780601f10610efb57610100808354040283529160200191610f26565b820191906000526020600020905b815481529060010190602001808311610f0957829003601f168201915b505050505091505b8080610f3990611aed565b915050610db6565b508782828596509650965096505050509193509193565b600860009054906101000a900460ff1681565b6000600682604051610f7d9190611b71565b908152602001604051809103902060000160009054906101000a900460ff169050919050565b606060008060009050606060005b60025481101561109b5785600560008381526020019081526020016000206000015403611088578280610fe390611aed565b93505060046000878152602001908152602001600020600001805461100790611d0b565b80601f016020809104026020016040519081016040528092919081815260200182805461103390611d0b565b80156110805780601f1061105557610100808354040283529160200191611080565b820191906000526020600020905b81548152906001019060200180831161106357829003601f168201915b505050505091505b808061109390611aed565b915050610fb1565b508082935093505050915091565b6000600154905090565b60008054906101000a900473ffffffffffffffffffffffffffffffffffffffff1673ffffffffffffffffffffffffffffffffffffffff163373ffffffffffffffffffffffffffffffffffffffff161461110b57600080fd5b6000600281111561111f5761111e6114c8565b5b600860009054906101000a900460ff166002811115611141576111406114c8565b5b148061118057506001600281111561115c5761115b6114c8565b5b600860009054906101000a900460ff16600281111561117e5761117d6114c8565b5b145b15611226576040518060400160405280600015158152602001828152506006836040516111ad9190611b71565b908152602001604051809103902060008201518160000160006101000a81548160ff021916908315150217905550602082015181600101559050507f5974df95c081c9fd596f932673fe8551ab54bfc5a28b4239455e9c414225340d82826040516112199291906119a9565b60405180910390a161125c565b7f08c379a0afcc32b1a39302f7cb8073359698411ab5fd6e3edb2c02c0b5fba8aa60405161125390611e24565b60405180910390a15b5050565b60008054906101000a900473ffffffffffffffffffffffffffffffffffffffff1673ffffffffffffffffffffffffffffffffffffffff163373ffffffffffffffffffffffffffffffffffffffff16146112b857600080fd5b60018060028111156112cd576112cc6114c8565b5b600860009054906101000a900460ff1660028111156112ef576112ee6114c8565b5b146112f957600080fd5b6000600860006101000a81548160ff0219169083600281111561131f5761131e6114c8565b5b02179055507f8230739840694e52482d047a2e5d5a05c95a1759e32dcb1ae6fd1115ed2cc50860006040516113549190611a47565b60405180910390a150565b6060600060076000848152602001908152602001600020600001600760008581526020019081526020016000206001015481805461139c90611d0b565b80601f01602080910402602001604051908101604052809291908181526020018280546113c890611d0b565b80156114155780601f106113ea57610100808354040283529160200191611415565b820191906000526020600020905b8154815290600101906020018083116113f857829003601f168201915b5050505050915091509150915091565b82805461143190611d0b565b90600052602060002090601f016020900481019282611453576000855561149a565b82601f1061146c57805160ff191683800117855561149a565b8280016001018555821561149a579182015b8281111561149957825182559160200191906001019061147e565b5b5090506114a791906114ab565b5090565b5b808211156114c45760008160009055506001016114ac565b5090565b7f4e487b7100000000000000000000000000000000000000000000000000000000600052602160045260246000fd5b60038110611508576115076114c8565b5b50565b6000819050611519826114f7565b919050565b60006115298261150b565b9050919050565b6115398161151e565b82525050565b60006020820190506115546000830184611530565b92915050565b6000604051905090565b600080fd5b600080fd5b6000819050919050565b6115818161156e565b811461158c57600080fd5b50565b60008135905061159e81611578565b92915050565b6000602082840312156115ba576115b9611564565b5b60006115c88482850161158f565b91505092915050565b6115da8161156e565b82525050565b60006020820190506115f560008301846115d1565b92915050565b600080fd5b600080fd5b6000601f19601f8301169050919050565b7f4e487b7100000000000000000000000000000000000000000000000000000000600052604160045260246000fd5b61164e82611605565b810181811067ffffffffffffffff8211171561166d5761166c611616565b5b80604052505050565b600061168061155a565b905061168c8282611645565b919050565b600067ffffffffffffffff8211156116ac576116ab611616565b5b6116b582611605565b9050602081019050919050565b82818337600083830152505050565b60006116e46116df84611691565b611676565b905082815260208101848484011115611700576116ff611600565b5b61170b8482856116c2565b509392505050565b600082601f830112611728576117276115fb565b5b81356117388482602086016116d1565b91505092915050565b6000806040838503121561175857611757611564565b5b60006117668582860161158f565b925050602083013567ffffffffffffffff81111561178757611786611569565b5b61179385828601611713565b9150509250929050565b600080604083850312156117b4576117b3611564565b5b600083013567ffffffffffffffff8111156117d2576117d1611569565b5b6117de85828601611713565b925050602083013567ffffffffffffffff8111156117ff576117fe611569565b5b61180b85828601611713565b9150509250929050565b600081519050919050565b600082825260208201905092915050565b60005b8381101561184f578082015181840152602081019050611834565b8381111561185e576000848401525b50505050565b600061186f82611815565b6118798185611820565b9350611889818560208601611831565b61189281611605565b840191505092915050565b60006060820190506118b260008301866115d1565b81810360208301526118c48185611864565b905081810360408301526118d88184611864565b9050949350505050565b6000602082840312156118f8576118f7611564565b5b600082013567ffffffffffffffff81111561191657611915611569565b5b61192284828501611713565b91505092915050565b600060608201905061194060008301866115d1565b81810360208301526119528185611864565b905061196160408301846115d1565b949350505050565b600080604083850312156119805761197f611564565b5b600061198e8582860161158f565b925050602061199f8582860161158f565b9150509250929050565b600060408201905081810360008301526119c38185611864565b90506119d260208301846115d1565b9392505050565b60006080820190506119ee60008301876115d1565b8181036020830152611a008186611864565b90508181036040830152611a148185611864565b9050611a2360608301846115d1565b95945050505050565b60008115159050919050565b611a4181611a2c565b82525050565b6000602082019050611a5c6000830184611a38565b92915050565b60008060408385031215611a7957611a78611564565b5b600083013567ffffffffffffffff811115611a9757611a96611569565b5b611aa385828601611713565b9250506020611ab48582860161158f565b9150509250929050565b7f4e487b7100000000000000000000000000000000000000000000000000000000600052601160045260246000fd5b6000611af88261156e565b91507fffffffffffffffffffffffffffffffffffffffffffffffffffffffffffffffff8203611b2a57611b29611abe565b5b600182019050919050565b600081905092915050565b6000611b4b82611815565b611b558185611b35565b9350611b65818560208601611831565b80840191505092915050565b6000611b7d8284611b40565b915081905092915050565b6000611b938261156e565b9150611b9e8361156e565b9250827fffffffffffffffffffffffffffffffffffffffffffffffffffffffffffffffff03821115611bd357611bd2611abe565b5b828201905092915050565b7f766f74696e67206661696c6564203a20496e76616c69642043616e646964617460008201527f65202f20566f7465720000000000000000000000000000000000000000000000602082015250565b6000611c3a602983611820565b9150611c4582611bde565b604082019050919050565b60006020820190508181036000830152611c6981611c2d565b9050919050565b7f736f6d6574696e6720776f6e6720776974206461207374617465000000000000600082015250565b6000611ca6601a83611820565b9150611cb182611c70565b602082019050919050565b60006020820190508181036000830152611cd581611c99565b9050919050565b7f4e487b7100000000000000000000000000000000000000000000000000000000600052602260045260246000fd5b60006002820490506001821680611d2357607f821691505b602082108103611d3657611d35611cdc565b5b50919050565b6000604082019050611d5160008301856115d1565b8181036020830152611d638184611864565b90509392505050565b7f5374617465204973737565000000000000000000000000000000000000000000600082015250565b6000611da2600b83611820565b9150611dad82611d6c565b602082019050919050565b60006020820190508181036000830152611dd181611d95565b9050919050565b7f566f74696e672069732073746172746564202f20456e64656400000000000000600082015250565b6000611e0e601983611820565b9150611e1982611dd8565b602082019050919050565b60006020820190508181036000830152611e3d81611e01565b905091905056fea2646970667358221220b43d017457d773c331600f175f8d8ae24fcbe709f115c6f9caee4f259d4a225c64736f6c634300080d0033",
  "immutableReferences": {},
  "source": "// SPDX-License-Identifier: GPL-3.0\n\npragma solidity ^0.8.13;\n// written for Solidity version 0.4.18 and above that doesnt break functionality\n\ncontract Ballot {\n    // Events\n    event AddedCandidate(uint candidateID);\n    event AddedEntry(string rid, uint id);\n    event Error(string error);\n\n    // States Events\n    event isCreated(bool cState);\n    event isVoting(bool cState);\n\n    event AddedCat(uint id, string name);\n\n    // describes a Voter, which has an id and the ID of the candidate they voted for\n    address owner;\n\n    constructor ()  {\n        owner = msg.sender;\n        state = State.Created;\n        emit isCreated(true);\n        emit isVoting(false);\n    }\n\n    // modifiers\n    modifier onlyOwner {\n        require(msg.sender == owner);\n        _;\n    }\n\n    modifier inState(State _state) {\n        require((state == _state));\n        _;\n    }\n    struct Voter {\n        uint candidateIDVote;\n        uint catid;\n    }\n\n\n    // describes a Candidate\n    struct Candidate {\n        string name;\n        string party;\n        // \"bool doesExist\" is to check if this Struct exists\n        // This is so we can keep track of the candidates \n        bool doesExist;\n    }\n\n    // Categories\n    struct Cats {\n        string name;\n        uint count;\n    }\n\n    // structfor vals\n    struct Anon {\n        bool voted;\n        uint id;\n    }\n\n\n    // These state variables are used keep track of the number of Candidates/Voters \n    // and used to as a way to index them     \n    uint numCandidates; // declares a state variable - number Of Candidates\n    uint numVoters;\n    uint numCats;\n\n\n    // Think of these as a hash table, with the key as a uint and value of \n    // the struct Candidate/Voter. These mappings will be used in the majority\n    // of our transactions/calls\n    // These mappings will hold all the candidates and Voters respectively\n    mapping(uint => Candidate) candidates;\n    mapping(uint => Voter) voters;\n    mapping(string => Anon) anony;\n    mapping(uint => Cats) cats;\n\n    // States\n    enum State {Created, Voting, Ended}\n    State public state;\n\n\n    /* * * * * * * * * * * * * * * * * * * * * * * * * * * * * * * *\n     *  These functions perform transactions, editing the mappings *\n     * * * * * * * * * * * * * * * * * * * * * * * * * * * * * * * */\n\n    // 4da Validations / entry of category id\n    function entry(string memory rid, uint id) onlyOwner public\n    \n    { // need state validation here; ongoing voting\n        if (state == State.Created || state == State.Voting){\n\n            anony[rid] = Anon(false, id);\n            emit AddedEntry(rid, id);\n\n        } else{\n            emit Error(\"Voting is started / Ended\");\n        }\n    }\n\n    // state init for voting\n    function startVoting() onlyOwner public\n    inState(State.Created)\n    {\n        state = State.Voting;\n        emit isVoting(true);\n    }\n\n    // stop voting\n    function stopVoting() onlyOwner public\n    inState(State.Voting)\n    {   // a change\n        state = State.Created;\n        emit isVoting(false);\n    }\n\n    // error handled function\n    function addCandidate(string memory name, string memory party) onlyOwner public\n    {\n        if (state == State.Created)\n    {\n        // candidateID is the return variable\n        uint candidateID = numCandidates++;\n        // Create new Candidate Struct with name and saves it to storage.\n        candidates[candidateID] = Candidate(name, party, true);\n        emit AddedCandidate(candidateID);\n    }\n    else {\n        emit Error(\"someting wong wit da state\");\n    }\n    }\n\n    function addCats(string memory name)\n    onlyOwner\n    public\n    \n    {\n        if (state == State.Created){\n\n            uint id = numCats++;\n            cats[id] = Cats(name, 0);\n\n            emit AddedCat(id, name);\n\n        } else {\n            \n            emit Error(\"State Issue\");\n        }\n\n    }\n\n    function vote(uint candidateID, string memory rid) public\n    inState(State.Voting)\n    {\n        // checks if the struct exists for that candidate\n        if (candidates[candidateID].doesExist == true && anony[rid].voted == false) {\n            uint voterID = numVoters++;\n            uint id = anony[rid].id;\n\n            //voterID is the return variable\n            voters[voterID] = Voter(candidateID, id);\n            // increment cats\n            cats[id].count += 1;\n\n            // setter voter voted\n            anony[rid].voted = true;\n        }\n        else {\n            emit Error(\"voting failed : Invalid Candidate / Voter\");\n        }\n    }\n\n    /* * * * * * * * * * * * * * * * * * * * * * * * * * \n     *  Getter Functions *\n     * * * * * * * * * * * * * * * * * * * * * * * * * */\n\n\n    // finds the total amount of votes for a specific candidate by looping\n    // through voters \n    function totalVotes(uint candidateID) view public returns (uint) {\n        uint numOfVotes = 0;\n        // we will return this\n        for (uint i = 0; i < numVoters; i++) {\n            // if the voter votes for this specific candidate, we increment the number\n            if (voters[i].candidateIDVote == candidateID) {\n                numOfVotes++;\n            }\n        }\n        return numOfVotes;\n    }\n\n    function voteswithId(uint candidateID) view public returns (string memory, uint) {\n        uint numOfVotes = 0;\n        string memory name;\n\n        for (uint i = 0; i < numVoters; i++) {\n            // if the voter votes for this specific candidate, we increment the number\n            if (voters[i].candidateIDVote == candidateID) {\n                numOfVotes++;\n                // retrieve name\n                name = candidates[candidateID].name;\n            }\n        }\n        return (name, numOfVotes);\n    }\n\n    // votes by specific candidate id & category\n    function advancedVotes(uint candidateid, uint inputcat) view public returns (string memory, uint) {\n        uint numVotes = 0;\n        string memory name;\n        for (uint i = 0; i < numVoters; i++) {\n            if (voters[i].candidateIDVote == candidateid && voters[i].catid == inputcat) {\n                numVotes++;\n                name = cats[inputcat].name;\n            }\n        }\n        return (name, numVotes);\n\n    }\n\n    // return candidate details and votes\n    function getCandidateData(uint candidateID) view public returns (uint, string memory, string memory, uint) {\n        uint numOfVotes = 0;\n        string memory name;\n        string memory party;\n\n        for (uint i = 0; i < numVoters; i++) {\n            // if the voter votes for this specific candidate, we increment the number\n            if (voters[i].candidateIDVote == candidateID) {\n                numOfVotes++;\n                // retrieve name\n                name = candidates[candidateID].name;\n                party = candidates[candidateID].party;\n            }\n        }\n        return (candidateID, name, party, numOfVotes);\n    }\n \n    // votes by cats\n    function votesbycat(uint id) public view returns ( string memory, uint) {\n        return (cats[id].name, cats[id].count);\n    }\n\n    // Return Cat Details\n    function returnCats(uint id) public view returns (uint, string memory, uint) {\n        return (id, cats[id].name, cats[id].count);\n    }\n\n    // return cats count\n    function returnCatCount()\n    public\n    view\n    returns\n    (uint)\n    {\n        return numCats;\n\n    }\n\n    function getNumOfCandidates() public view returns (uint) {\n        return numCandidates;\n    }\n\n    function getNumOfVoters() public view returns (uint) {\n        return numVoters;\n    }\n    // returns candidate information, including its ID, name, and party\n    function getCandidate(uint candidateID) public view returns (uint, string memory, string memory) {\n        return (candidateID, candidates[candidateID].name, candidates[candidateID].party);\n    }\n\n    function returnMappingValue(string memory rid) public view returns (bool) {\n        return (anony[rid].voted);\n    }\n\n    function currentState() public view returns (State) {\n        return state;\n    }\n}",
  "sourcePath": "/home/yux/dev/dart/vote/votedepartment/contracts/Ballot.sol",
  "compiler": {
    "name": "solc",
    "version": "0.8.13+commit.abaa5c0e.Emscripten.clang"
  },
  "schemaVersion": "3.4.3",
  "updatedAt": "2022-04-12T20:37:23.120Z",
  "networkType": "ethereum",
  "devdoc": {
    "kind": "dev",
    "methods": {},
    "version": 1
  },
  "userdoc": {
    "kind": "user",
    "methods": {},
    "version": 1
  }
}