{
  "contractName": "Ballot",
  "abi": [
    {
      "inputs": [],
      "stateMutability": "nonpayable",
      "type": "constructor"
    },
    {
      "anonymous": false,
      "inputs": [
        {
          "indexed": false,
          "internalType": "uint256",
          "name": "candidateID",
          "type": "uint256"
        }
      ],
      "name": "AddedCandidate",
      "type": "event"
    },
    {
      "inputs": [
        {
          "internalType": "string",
          "name": "name",
          "type": "string"
        },
        {
          "internalType": "string",
          "name": "party",
          "type": "string"
        }
      ],
      "name": "addCandidate",
      "outputs": [],
      "stateMutability": "nonpayable",
      "type": "function"
    },
    {
      "inputs": [
        {
          "internalType": "string",
          "name": "uid",
          "type": "string"
        },
        {
          "internalType": "uint256",
          "name": "candidateID",
          "type": "uint256"
        }
      ],
      "name": "vote",
      "outputs": [],
      "stateMutability": "nonpayable",
      "type": "function"
    },
    {
      "inputs": [
        {
          "internalType": "uint256",
          "name": "candidateID",
          "type": "uint256"
        }
      ],
      "name": "totalVotes",
      "outputs": [
        {
          "internalType": "uint256",
          "name": "",
          "type": "uint256"
        }
      ],
      "stateMutability": "view",
      "type": "function",
      "constant": true
    },
    {
      "inputs": [],
      "name": "getNumOfCandidates",
      "outputs": [
        {
          "internalType": "uint256",
          "name": "",
          "type": "uint256"
        }
      ],
      "stateMutability": "view",
      "type": "function",
      "constant": true
    },
    {
      "inputs": [],
      "name": "getNumOfVoters",
      "outputs": [
        {
          "internalType": "uint256",
          "name": "",
          "type": "uint256"
        }
      ],
      "stateMutability": "view",
      "type": "function",
      "constant": true
    },
    {
      "inputs": [
        {
          "internalType": "uint256",
          "name": "candidateID",
          "type": "uint256"
        }
      ],
      "name": "getCandidate",
      "outputs": [
        {
          "internalType": "uint256",
          "name": "",
          "type": "uint256"
        },
        {
          "internalType": "string",
          "name": "",
          "type": "string"
        },
        {
          "internalType": "string",
          "name": "",
          "type": "string"
        }
      ],
      "stateMutability": "view",
      "type": "function",
      "constant": true
    }
  ],
  "bytecode": "0x608060405234801561001057600080fd5b50336000806101000a81548173ffffffffffffffffffffffffffffffffffffffff021916908373ffffffffffffffffffffffffffffffffffffffff160217905550610ac4806100606000396000f3fe608060405234801561001057600080fd5b50600436106100625760003560e01c806319e6e1581461006757806326541b561461009757806335b8e820146100b357806365fc783c146100e5578063a638580314610103578063e8685ba11461011f575b600080fd5b610081600480360381019061007c91906105c9565b61013d565b60405161008e9190610605565b60405180910390f35b6100b160048036038101906100ac9190610766565b61019b565b005b6100cd60048036038101906100c891906105c9565b6102d8565b6040516100dc93929190610866565b60405180910390f35b6100ed61042f565b6040516100fa9190610605565b60405180910390f35b61011d600480360381019061011891906108ab565b610439565b005b6101276104d2565b6040516101349190610605565b60405180910390f35b6000806000905060005b60025481101561019157836004600083815260200190815260200160002060010154141561017e57818061017a90610936565b9250505b808061018990610936565b915050610147565b5080915050919050565b60008054906101000a900473ffffffffffffffffffffffffffffffffffffffff1673ffffffffffffffffffffffffffffffffffffffff163373ffffffffffffffffffffffffffffffffffffffff16146101f357600080fd5b60006001600081548092919061020890610936565b91905055905060405180606001604052808481526020018381526020016001151581525060036000838152602001908152602001600020600082015181600001908051906020019061025b9291906104dc565b5060208201518160010190805190602001906102789291906104dc565b5060408201518160020160006101000a81548160ff0219169083151502179055509050507fec542c373a064661ffef02d633752debf28f3e6c9f253680822d9ccf8b47aec6816040516102cb9190610605565b60405180910390a1505050565b6000606080836003600086815260200190815260200160002060000160036000878152602001908152602001600020600101818054610316906109ae565b80601f0160208091040260200160405190810160405280929190818152602001828054610342906109ae565b801561038f5780601f106103645761010080835404028352916020019161038f565b820191906000526020600020905b81548152906001019060200180831161037257829003601f168201915b505050505091508080546103a2906109ae565b80601f01602080910402602001604051908101604052809291908181526020018280546103ce906109ae565b801561041b5780601f106103f05761010080835404028352916020019161041b565b820191906000526020600020905b8154815290600101906020018083116103fe57829003601f168201915b505050505090509250925092509193909250565b6000600254905090565b600115156003600083815260200190815260200160002060020160009054906101000a900460ff16151514156104ce5760006002600081548092919061047e90610936565b91905055905060405180604001604052808461049990610a27565b815260200183815250600460008381526020019081526020016000206000820151816000015560208201518160010155905050505b5050565b6000600154905090565b8280546104e8906109ae565b90600052602060002090601f01602090048101928261050a5760008555610551565b82601f1061052357805160ff1916838001178555610551565b82800160010185558215610551579182015b82811115610550578251825591602001919060010190610535565b5b50905061055e9190610562565b5090565b5b8082111561057b576000816000905550600101610563565b5090565b6000604051905090565b600080fd5b600080fd5b6000819050919050565b6105a681610593565b81146105b157600080fd5b50565b6000813590506105c38161059d565b92915050565b6000602082840312156105df576105de610589565b5b60006105ed848285016105b4565b91505092915050565b6105ff81610593565b82525050565b600060208201905061061a60008301846105f6565b92915050565b600080fd5b600080fd5b6000601f19601f8301169050919050565b7f4e487b7100000000000000000000000000000000000000000000000000000000600052604160045260246000fd5b6106738261062a565b810181811067ffffffffffffffff821117156106925761069161063b565b5b80604052505050565b60006106a561057f565b90506106b1828261066a565b919050565b600067ffffffffffffffff8211156106d1576106d061063b565b5b6106da8261062a565b9050602081019050919050565b82818337600083830152505050565b6000610709610704846106b6565b61069b565b90508281526020810184848401111561072557610724610625565b5b6107308482856106e7565b509392505050565b600082601f83011261074d5761074c610620565b5b813561075d8482602086016106f6565b91505092915050565b6000806040838503121561077d5761077c610589565b5b600083013567ffffffffffffffff81111561079b5761079a61058e565b5b6107a785828601610738565b925050602083013567ffffffffffffffff8111156107c8576107c761058e565b5b6107d485828601610738565b9150509250929050565b600081519050919050565b600082825260208201905092915050565b60005b838110156108185780820151818401526020810190506107fd565b83811115610827576000848401525b50505050565b6000610838826107de565b61084281856107e9565b93506108528185602086016107fa565b61085b8161062a565b840191505092915050565b600060608201905061087b60008301866105f6565b818103602083015261088d818561082d565b905081810360408301526108a1818461082d565b9050949350505050565b600080604083850312156108c2576108c1610589565b5b600083013567ffffffffffffffff8111156108e0576108df61058e565b5b6108ec85828601610738565b92505060206108fd858286016105b4565b9150509250929050565b7f4e487b7100000000000000000000000000000000000000000000000000000000600052601160045260246000fd5b600061094182610593565b91507fffffffffffffffffffffffffffffffffffffffffffffffffffffffffffffffff82141561097457610973610907565b5b600182019050919050565b7f4e487b7100000000000000000000000000000000000000000000000000000000600052602260045260246000fd5b600060028204905060018216806109c657607f821691505b602082108114156109da576109d961097f565b5b50919050565b600081519050919050565b6000819050602082019050919050565b6000819050919050565b6000610a1182516109fb565b80915050919050565b600082821b905092915050565b6000610a32826109e0565b82610a3c846109eb565b9050610a4781610a05565b92506020821015610a8757610a827fffffffffffffffffffffffffffffffffffffffffffffffffffffffffffffffff83602003600802610a1a565b831692505b505091905056fea2646970667358221220e4ab2a9703228d16ac7213d9e49e63594c5768d93c5c8aa2c17a92ab54b1ef2064736f6c634300080b0033",
  "immutableReferences": {},
  "source": "// SPDX-License-Identifier: GPL-3.0\n\npragma solidity ^0.8.10;\n// written for Solidity version 0.4.18 and above that doesnt break functionality\n\ncontract Ballot {\n    // an event that is called whenever a Candidate is added so the frontend could\n    // appropriately display the candidate with the right element id (it is used\n    // to vote for the candidate, since it is one of arguments for the function \"vote\")\n    event AddedCandidate(uint candidateID);\n\n    // describes a Voter, which has an id and the ID of the candidate they voted for\n    address owner;\n\n    constructor ()  {\n        owner = msg.sender;\n\n    }\n    modifier onlyOwner {\n       require(msg.sender == owner);\n        _;\n    }\n    struct Voter {\n        bytes32 uid; // bytes32 type are basically strings\n        uint candidateIDVote;\n    }\n    // describes a Candidate\n    struct Candidate {\n        string name;\n        string party;\n        // \"bool doesExist\" is to check if this Struct exists\n        // This is so we can keep track of the candidates \n        bool doesExist;\n    }\n\n    // These state variables are used keep track of the number of Candidates/Voters \n    // and used to as a way to index them     \n    uint numCandidates; // declares a state variable - number Of Candidates\n    uint numVoters;\n\n\n    // Think of these as a hash table, with the key as a uint and value of \n    // the struct Candidate/Voter. These mappings will be used in the majority\n    // of our transactions/calls\n    // These mappings will hold all the candidates and Voters respectively\n    mapping(uint => Candidate) candidates;\n    mapping(uint => Voter) voters;\n\n    /* * * * * * * * * * * * * * * * * * * * * * * * * * * * * * * *\n     *  These functions perform transactions, editing the mappings *\n     * * * * * * * * * * * * * * * * * * * * * * * * * * * * * * * */\n\n    function addCandidate(string memory name, string memory party) onlyOwner public {\n        // candidateID is the return variable\n        uint candidateID = numCandidates++;\n        // Create new Candidate Struct with name and saves it to storage.\n        candidates[candidateID] = Candidate(name,party,true);\n        emit AddedCandidate(candidateID);\n    }\n\n    function vote(string memory uid, uint candidateID) public {\n        // checks if the struct exists for that candidate\n        if (candidates[candidateID].doesExist == true) {\n            uint voterID = numVoters++;\n            //voterID is the return variable\n            voters[voterID] = Voter( bytes32(bytes(uid)), candidateID);\n        }\n    }\n\n    /* * * * * * * * * * * * * * * * * * * * * * * * * * \n     *  Getter Functions *\n     * * * * * * * * * * * * * * * * * * * * * * * * * */\n\n\n    // finds the total amount of votes for a specific candidate by looping\n    // through voters \n    function totalVotes(uint candidateID) view public returns (uint) {\n        uint numOfVotes = 0;\n        // we will return this\n        for (uint i = 0; i < numVoters; i++) {\n            // if the voter votes for this specific candidate, we increment the number\n            if (voters[i].candidateIDVote == candidateID) {\n                numOfVotes++;\n            }\n        }\n        return numOfVotes;\n    }\n\n    function getNumOfCandidates() public view returns (uint) {\n        return numCandidates;\n    }\n\n    function getNumOfVoters() public view returns (uint) {\n        return numVoters;\n    }\n    // returns candidate information, including its ID, name, and party\n    function getCandidate(uint candidateID) public view returns (uint, string memory, string memory) {\n        return (candidateID, candidates[candidateID].name, candidates[candidateID].party);\n    }\n}",
  "sourcePath": "/home/yux/dev/dart/vote/contracts/Ballot.sol",
  "compiler": {
    "name": "solc",
    "version": "0.8.11+commit.d7f03943.Emscripten.clang"
  },
  "schemaVersion": "3.4.3",
  "updatedAt": "2022-01-24T08:07:02.721Z",
  "networkType": "ethereum",
  "devdoc": {
    "kind": "dev",
    "methods": {},
    "version": 1
  },
  "userdoc": {
    "kind": "user",
    "methods": {},
    "version": 1
  }
}