{
  "contractName": "Ballot",
  "abi": [
    {
      "inputs": [],
      "stateMutability": "nonpayable",
      "type": "constructor"
    },
    {
      "anonymous": false,
      "inputs": [
        {
          "indexed": false,
          "internalType": "uint256",
          "name": "candidateID",
          "type": "uint256"
        }
      ],
      "name": "AddedCandidate",
      "type": "event"
    },
    {
      "anonymous": false,
      "inputs": [
        {
          "indexed": false,
          "internalType": "uint8",
          "name": "rid",
          "type": "uint8"
        }
      ],
      "name": "AddedEntry",
      "type": "event"
    },
    {
      "anonymous": false,
      "inputs": [
        {
          "indexed": false,
          "internalType": "uint8",
          "name": "rid",
          "type": "uint8"
        }
      ],
      "name": "Error",
      "type": "event"
    },
    {
      "inputs": [
        {
          "internalType": "uint8",
          "name": "rid",
          "type": "uint8"
        }
      ],
      "name": "entry",
      "outputs": [],
      "stateMutability": "nonpayable",
      "type": "function"
    },
    {
      "inputs": [
        {
          "internalType": "string",
          "name": "name",
          "type": "string"
        },
        {
          "internalType": "string",
          "name": "party",
          "type": "string"
        }
      ],
      "name": "addCandidate",
      "outputs": [],
      "stateMutability": "nonpayable",
      "type": "function"
    },
    {
      "inputs": [
        {
          "internalType": "uint256",
          "name": "candidateID",
          "type": "uint256"
        },
        {
          "internalType": "uint8",
          "name": "rid",
          "type": "uint8"
        }
      ],
      "name": "vote",
      "outputs": [],
      "stateMutability": "nonpayable",
      "type": "function"
    },
    {
      "inputs": [
        {
          "internalType": "uint256",
          "name": "candidateID",
          "type": "uint256"
        }
      ],
      "name": "totalVotes",
      "outputs": [
        {
          "internalType": "uint256",
          "name": "",
          "type": "uint256"
        }
      ],
      "stateMutability": "view",
      "type": "function",
      "constant": true
    },
    {
      "inputs": [],
      "name": "getNumOfCandidates",
      "outputs": [
        {
          "internalType": "uint256",
          "name": "",
          "type": "uint256"
        }
      ],
      "stateMutability": "view",
      "type": "function",
      "constant": true
    },
    {
      "inputs": [],
      "name": "getNumOfVoters",
      "outputs": [
        {
          "internalType": "uint256",
          "name": "",
          "type": "uint256"
        }
      ],
      "stateMutability": "view",
      "type": "function",
      "constant": true
    },
    {
      "inputs": [
        {
          "internalType": "uint256",
          "name": "candidateID",
          "type": "uint256"
        }
      ],
      "name": "getCandidate",
      "outputs": [
        {
          "internalType": "uint256",
          "name": "",
          "type": "uint256"
        },
        {
          "internalType": "string",
          "name": "",
          "type": "string"
        },
        {
          "internalType": "string",
          "name": "",
          "type": "string"
        }
      ],
      "stateMutability": "view",
      "type": "function",
      "constant": true
    },
    {
      "inputs": [
        {
          "internalType": "uint8",
          "name": "rid",
          "type": "uint8"
        }
      ],
      "name": "returnMappingValue",
      "outputs": [
        {
          "internalType": "bool",
          "name": "",
          "type": "bool"
        }
      ],
      "stateMutability": "view",
      "type": "function",
      "constant": true
    }
  ],
  "bytecode": "0x608060405234801561001057600080fd5b50336000806101000a81548173ffffffffffffffffffffffffffffffffffffffff021916908373ffffffffffffffffffffffffffffffffffffffff160217905550610cae806100606000396000f3fe608060405234801561001057600080fd5b50600436106100885760003560e01c80636cadb5a11161005b5780636cadb5a114610129578063943e821614610159578063c5cb6c5614610175578063e8685ba11461019157610088565b806319e6e1581461008d57806326541b56146100bd57806335b8e820146100d957806365fc783c1461010b575b600080fd5b6100a760048036038101906100a291906107b9565b6101af565b6040516100b491906107f5565b60405180910390f35b6100d760048036038101906100d29190610956565b61020c565b005b6100f360048036038101906100ee91906107b9565b610349565b60405161010293929190610a56565b60405180910390f35b6101136104a0565b60405161012091906107f5565b60405180910390f35b610143600480360381019061013e9190610ad4565b6104aa565b6040516101509190610b1c565b60405180910390f35b610173600480360381019061016e9190610b37565b6104da565b005b61018f600480360381019061018a9190610ad4565b6105fe565b005b6101996106c2565b6040516101a691906107f5565b60405180910390f35b6000806000905060005b60025481101561020257836004600083815260200190815260200160002060000154036101ef5781806101eb90610ba6565b9250505b80806101fa90610ba6565b9150506101b9565b5080915050919050565b60008054906101000a900473ffffffffffffffffffffffffffffffffffffffff1673ffffffffffffffffffffffffffffffffffffffff163373ffffffffffffffffffffffffffffffffffffffff161461026457600080fd5b60006001600081548092919061027990610ba6565b9190505590506040518060600160405280848152602001838152602001600115158152506003600083815260200190815260200160002060008201518160000190805190602001906102cc9291906106cc565b5060208201518160010190805190602001906102e99291906106cc565b5060408201518160020160006101000a81548160ff0219169083151502179055509050507fec542c373a064661ffef02d633752debf28f3e6c9f253680822d9ccf8b47aec68160405161033c91906107f5565b60405180910390a1505050565b600060608083600360008681526020019081526020016000206000016003600087815260200190815260200160002060010181805461038790610c1d565b80601f01602080910402602001604051908101604052809291908181526020018280546103b390610c1d565b80156104005780601f106103d557610100808354040283529160200191610400565b820191906000526020600020905b8154815290600101906020018083116103e357829003601f168201915b5050505050915080805461041390610c1d565b80601f016020809104026020016040519081016040528092919081815260200182805461043f90610c1d565b801561048c5780601f106104615761010080835404028352916020019161048c565b820191906000526020600020905b81548152906001019060200180831161046f57829003601f168201915b505050505090509250925092509193909250565b6000600254905090565b6000600560008360ff1660ff16815260200190815260200160002060009054906101000a900460ff169050919050565b600115156003600084815260200190815260200160002060020160009054906101000a900460ff16151514801561053b575060001515600560008360ff1660ff16815260200190815260200160002060009054906101000a900460ff161515145b156105c25760006002600081548092919061055590610ba6565b91905055905060405180602001604052808481525060046000838152602001908152602001600020600082015181600001559050506001600560008460ff1660ff16815260200190815260200160002060006101000a81548160ff021916908315150217905550506105fa565b7ff0ba958cc7ac886093917f79596c8c582249d6b1c730fcb84c76a76d0f636e4e816040516105f19190610c5d565b60405180910390a15b5050565b60008054906101000a900473ffffffffffffffffffffffffffffffffffffffff1673ffffffffffffffffffffffffffffffffffffffff163373ffffffffffffffffffffffffffffffffffffffff161461065657600080fd5b6000600560008360ff1660ff16815260200190815260200160002060006101000a81548160ff0219169083151502179055507f5f6712968aec1b9e80289edda45fa1aeb126bdcefacfd9b46d869d162bb4302a816040516106b79190610c5d565b60405180910390a150565b6000600154905090565b8280546106d890610c1d565b90600052602060002090601f0160209004810192826106fa5760008555610741565b82601f1061071357805160ff1916838001178555610741565b82800160010185558215610741579182015b82811115610740578251825591602001919060010190610725565b5b50905061074e9190610752565b5090565b5b8082111561076b576000816000905550600101610753565b5090565b6000604051905090565b600080fd5b600080fd5b6000819050919050565b61079681610783565b81146107a157600080fd5b50565b6000813590506107b38161078d565b92915050565b6000602082840312156107cf576107ce610779565b5b60006107dd848285016107a4565b91505092915050565b6107ef81610783565b82525050565b600060208201905061080a60008301846107e6565b92915050565b600080fd5b600080fd5b6000601f19601f8301169050919050565b7f4e487b7100000000000000000000000000000000000000000000000000000000600052604160045260246000fd5b6108638261081a565b810181811067ffffffffffffffff821117156108825761088161082b565b5b80604052505050565b600061089561076f565b90506108a1828261085a565b919050565b600067ffffffffffffffff8211156108c1576108c061082b565b5b6108ca8261081a565b9050602081019050919050565b82818337600083830152505050565b60006108f96108f4846108a6565b61088b565b90508281526020810184848401111561091557610914610815565b5b6109208482856108d7565b509392505050565b600082601f83011261093d5761093c610810565b5b813561094d8482602086016108e6565b91505092915050565b6000806040838503121561096d5761096c610779565b5b600083013567ffffffffffffffff81111561098b5761098a61077e565b5b61099785828601610928565b925050602083013567ffffffffffffffff8111156109b8576109b761077e565b5b6109c485828601610928565b9150509250929050565b600081519050919050565b600082825260208201905092915050565b60005b83811015610a085780820151818401526020810190506109ed565b83811115610a17576000848401525b50505050565b6000610a28826109ce565b610a3281856109d9565b9350610a428185602086016109ea565b610a4b8161081a565b840191505092915050565b6000606082019050610a6b60008301866107e6565b8181036020830152610a7d8185610a1d565b90508181036040830152610a918184610a1d565b9050949350505050565b600060ff82169050919050565b610ab181610a9b565b8114610abc57600080fd5b50565b600081359050610ace81610aa8565b92915050565b600060208284031215610aea57610ae9610779565b5b6000610af884828501610abf565b91505092915050565b60008115159050919050565b610b1681610b01565b82525050565b6000602082019050610b316000830184610b0d565b92915050565b60008060408385031215610b4e57610b4d610779565b5b6000610b5c858286016107a4565b9250506020610b6d85828601610abf565b9150509250929050565b7f4e487b7100000000000000000000000000000000000000000000000000000000600052601160045260246000fd5b6000610bb182610783565b91507fffffffffffffffffffffffffffffffffffffffffffffffffffffffffffffffff8203610be357610be2610b77565b5b600182019050919050565b7f4e487b7100000000000000000000000000000000000000000000000000000000600052602260045260246000fd5b60006002820490506001821680610c3557607f821691505b602082108103610c4857610c47610bee565b5b50919050565b610c5781610a9b565b82525050565b6000602082019050610c726000830184610c4e565b9291505056fea2646970667358221220bfe4539d75db62674557596119c60cb3fe18a1b39653b2a7f9c0a010bb8447be64736f6c634300080d0033",
  "immutableReferences": {},
  "source": "// SPDX-License-Identifier: GPL-3.0\n\npragma solidity ^0.8.10;\n// written for Solidity version 0.4.18 and above that doesnt break functionality\n\ncontract Ballot {\n    // an event that is called whenever a Candidate is added so the frontend could\n    // appropriately display the candidate with the right element id (it is used\n    // to vote for the candidate, since it is one of arguments for the function \"vote\")\n    event AddedCandidate(uint candidateID);\n    event AddedEntry(uint8 rid);\n    event Error(uint8 rid);\n\n    // describes a Voter, which has an id and the ID of the candidate they voted for\n    address owner;\n\n    constructor ()  {\n        owner = msg.sender;\n\n    }\n    modifier onlyOwner {\n       require(msg.sender == owner);\n        _;\n    }\n    struct Voter {\n        uint candidateIDVote;\n    }\n    // describes a Candidate\n    struct Candidate {\n        string name;\n        string party;\n        // \"bool doesExist\" is to check if this Struct exists\n        // This is so we can keep track of the candidates \n        bool doesExist;\n    }\n\n    struct Anon {\n        string rid;\n        bool voted;\n    }\n\n    // These state variables are used keep track of the number of Candidates/Voters \n    // and used to as a way to index them     \n    uint numCandidates; // declares a state variable - number Of Candidates\n    uint numVoters;\n\n\n    // Think of these as a hash table, with the key as a uint and value of \n    // the struct Candidate/Voter. These mappings will be used in the majority\n    // of our transactions/calls\n    // These mappings will hold all the candidates and Voters respectively\n    mapping(uint => Candidate) candidates;\n    mapping(uint => Voter) voters;\n    mapping(uint8 => bool) anony;\n\n    /* * * * * * * * * * * * * * * * * * * * * * * * * * * * * * * *\n     *  These functions perform transactions, editing the mappings *\n     * * * * * * * * * * * * * * * * * * * * * * * * * * * * * * * */\n    // 4da Validations\n    function entry(uint8 rid) onlyOwner public {\n        \n        anony[rid] = (false);\n        emit AddedEntry(rid);\n    }\n\n\n    function addCandidate(string memory name, string memory party) onlyOwner public {\n        // candidateID is the return variable\n        uint candidateID = numCandidates++;\n        // Create new Candidate Struct with name and saves it to storage.\n        candidates[candidateID] = Candidate(name,party,true);\n        emit AddedCandidate(candidateID);\n    }\n\n    function vote(uint candidateID, uint8 rid) public {\n        // checks if the struct exists for that candidate\n        if (candidates[candidateID].doesExist == true && anony[rid] == false ) {\n            uint voterID = numVoters++;\n            //voterID is the return variable\n            voters[voterID] = Voter(candidateID);\n            // set\n            anony[rid] = true; \n        }\n        else {\n            emit Error(rid);\n        }\n    }\n\n    /* * * * * * * * * * * * * * * * * * * * * * * * * * \n     *  Getter Functions *\n     * * * * * * * * * * * * * * * * * * * * * * * * * */\n\n\n    // finds the total amount of votes for a specific candidate by looping\n    // through voters \n    function totalVotes(uint candidateID) view public returns (uint) {\n        uint numOfVotes = 0;\n        // we will return this\n        for (uint i = 0; i < numVoters; i++) {\n            // if the voter votes for this specific candidate, we increment the number\n            if (voters[i].candidateIDVote == candidateID) {\n                numOfVotes++;\n            }\n        }\n        return numOfVotes;\n    }\n\n    function getNumOfCandidates() public view returns (uint) {\n        return numCandidates;\n    }\n\n    function getNumOfVoters() public view returns (uint) {\n        return numVoters;\n    }\n    // returns candidate information, including its ID, name, and party\n    function getCandidate(uint candidateID) public view returns (uint, string memory, string memory) {\n        return (candidateID, candidates[candidateID].name, candidates[candidateID].party);\n    }\n\n    function returnMappingValue(uint8 rid) public view returns ( bool) {\n        return (anony[rid]);\n    }  \n}",
  "sourcePath": "/home/yux/dev/dart/vote/votedepartment/contracts/Ballot.sol",
  "compiler": {
    "name": "solc",
    "version": "0.8.13+commit.abaa5c0e.Emscripten.clang"
  },
  "schemaVersion": "3.4.3",
  "updatedAt": "2022-03-22T07:42:32.915Z",
  "networkType": "ethereum",
  "devdoc": {
    "kind": "dev",
    "methods": {},
    "version": 1
  },
  "userdoc": {
    "kind": "user",
    "methods": {},
    "version": 1
  }
}